:020000040800F2
:1000000000800020C50C0008990C00089B0C00081B
:100010009D0C00089F0C0008A10C000800000000C7
:10002000000000000000000000000000A30C000819
:10003000A50C000800000000A70C0008A90C00088F
:10004000150D0008150D0008150D0008150D000808
:10005000150D0008150D0008150D0008150D0008F8
:10006000150D0008150D0008150D0008150D0008E8
:10007000150D0008150D0008150D0008150D0008D8
:10008000150D000800000000150D0008150D0008F2
:10009000150D0008150D0008150D0008150D0008B8
:1000A000150D0008150D0008150D0008150D0008A8
:1000B000150D0008150D0008150D0008150D000898
:1000C000150D0008150D0008150D0008150D000888
:1000D000150D0008150D0008B10C0008150D0008DD
:1000E000150D0008150D0008150D0008150D000868
:1000F000150D0008150D0008150D00080000000082
:1001000000000000150D000800000000150D00089B
:10011000150D000800000000150D0008150D000861
:10012000150D0008150D0008150D0008150D000827
:10013000150D00080000000000000000150D00086B
:10014000150D0008150D000800000000000000005B
:10015000000000000000000000000000000000009F
:10016000000000000000000000000000150D000865
:10017000150D000800000000000000000000000055
:1001800000000000150D0008000000000000000045
:10019000000000000000000000000000000000005F
:1001A0000000000000000000150D0008150D0008FB
:1001B000150D0008150D0008150D000800000000C1
:1001C00000000000150D0008000000000000000005
:0801D000150D0008150D0008D3
:1001D80010B5054C237833B9044B13B10448AFF379
:1001E80000800123237010BD3C04002000000000A3
:1001F800B031000808B5034B1BB103490348AFF3FE
:10020800008008BD0000000040040020B031000854
:100218004FF0FF0C1CEAD0521EBF1CEAD15392EAE1
:100228000C0F93EA0C0F6FD01A4480EA010C4002BD
:1002380018BF5FEA41211ED04FF0006343EA501017
:1002480043EA5111A0FB01310CF00040B1F5000F59
:100258003EBF490041EAD3715B0040EA010062F108
:100268007F02FD2A1DD8B3F1004F40EBC25008BFF2
:1002780020F00100704790F0000F0CF0004C08BF10
:1002880049024CEA502040EA51207F3AC2BFD2F1DD
:10029800FF0340EAC250704740F400004FF00003EB
:1002A800013A5DDC12F1190FDCBF00F00040704725
:1002B800C2F10002410021FA02F1C2F1200200FA63
:1002C80002FC5FEA310040F1000053EA4C0308BF2A
:1002D80020EADC70704792F0000F00F0004C02BF7B
:1002E800400010F4000F013AF9D040EA0C0093F0F6
:1002F800000F01F0004C02BF490011F4000F013B50
:10030800F9D041EA0C018FE70CEAD15392EA0C0FBD
:1003180018BF93EA0C0F0AD030F0004C18BF31F028
:10032800004CD8D180EA010000F00040704790F0FE
:10033800000F17BF90F0004F084691F0000F91F0A2
:10034800004F14D092EA0C0F01D142020FD193EA68
:100358000C0F03D14B0218BF084608D180EA0100F0
:1003680000F0004040F0FE4040F40000704740F0CC
:10037800FE4040F4400070474FF0FF0C1CEAD0529A
:100388001EBF1CEAD15392EA0C0F93EA0C0F69D0F6
:10039800A2EB030280EA010C49024FEA402037D061
:1003A8004FF0805343EA111143EA10130CF0004058
:1003B8008B4238BF5B0042F17D024FF4000C8B4248
:1003C80024BF5B1A40EA0C00B3EB510F24BFA3EB28
:1003D800510340EA5C00B3EB910F24BFA3EB9103F8
:1003E80040EA9C00B3EBD10F24BFA3EBD10340EA52
:1003F800DC001B0118BF5FEA1C1CE0D1FD2A3FF698
:1004080050AF8B4240EBC25008BF20F0010070474C
:100418000CF0004C4CEA50207F32C2BFD2F1FF03EF
:1004280040EAC250704740F400004FF00003013A20
:1004380037E792F0000F00F0004C02BF400010F4C4
:10044800000F013AF9D040EA0C0093F0000F01F0D8
:10045800004C02BF490011F4000F013BF9D041EAFA
:100468000C0195E70CEAD15392EA0C0F08D142022D
:100478007FF47DAF93EA0C0F7FF470AF084676E700
:1004880093EA0C0F04D14B023FF44CAF08466EE7D9
:1004980030F0004C18BF31F0004CCAD130F00042A7
:1004A8007FF45CAF31F000437FF43CAF5FE700BFFF
:1004B8004FEA4002B2F1FE4F0FD34FF09E03B3EB69
:1004C80012620DD94FEA002343F0004310F0004FA9
:1004D80023FA02F018BF404270474FF000007047FF
:1004E80012F1610F01D1420205D110F0004008BF9E
:1004F8006FF0004070474FF00000704753B94AB999
:10050800002908BF00281CBF4FF0FF314FF0FF3013
:1005180000F074B9ADF1080C6DE904CE00F006F8EE
:10052800DDF804E0DDE9022304B070472DE9F04767
:10053800089E0D4604468846002B4DD18A429446B3
:1005480068D9B2FA82F252B101FA02F3C2F120017B
:1005580020FA01F10CFA02FC41EA030894404FEA40
:100568001C45210CB8FBF5FE1FFA8CF705FB1E8312
:1005780041EA03430EFB07F199420BD91CEB030335
:100588000EF1FF3080F01E81994240F21B81AEF1DE
:10059800020E63445B1AA4B2B3FBF5F005FB1033FB
:1005A80044EA034400FB07F7A7420AD91CEB0404FA
:1005B80000F1FF3380F00881A74240F205816444CE
:1005C8000238E41B40EA0E4000211EB1D44000234B
:1005D800C6E90043BDE8F0878B4208D9002E00F039
:1005E800EE800021C6E900050846BDE8F087B3FAA9
:1005F80083F100294AD1AB4202D3824200F2F9804A
:10060800841A65EB030301209846002EE2D0C6E960
:100618000048DFE702B9FFDEB2FA82F2002A40F0B2
:100628009180A1EB0C054FEA1C471FFA8CFE0121B3
:10063800B5FBF7F307FB1350250C45EA00450EFB05
:1006480003F0A84208D91CEB050503F1FF3802D2D4
:10065800A84200F2CB8043462D1AA4B2B5FBF7F0AE
:1006680007FB105544EA05440EFB00FEA64508D9D1
:100678001CEB040400F1FF3502D2A64500F2BB8052
:100688002846A4EB0E0440EA03409EE7C1F1200788
:100698008B4022FA07FC4CEA030C20FA07F405FA0F
:1006A80001F31C43FD404FEA1C4900FA01F3B5FB76
:1006B800F9F8200C1FFA8CFE09FB185540EA05458D
:1006C80008FB0EF0A84202FA01F20BD91CEB050553
:1006D80008F1FF3A80F08880A84240F28580A8F1AE
:1006E800020865442D1AA4B2B5FBF9F009FB1055B0
:1006F80044EA054500FB0EFEAE4508D91CEB05058E
:1007080000F1FF346CD2AE456AD90238654440EA3C
:100718000840A0FB0294A5EB0E05A542C846A646D4
:1007280056D353D05EB1B3EB080265EB0E0505FA5C
:1007380007F722FA01F3CD401F43C6E900750021EF
:10074800BDE8F087C2F1200320FA03F10CFA02FC9D
:1007580025FA03F395400D434FEA1C471FFA8CFE18
:10076800B3FBF7F107FB11302B0C43EA004301FB05
:100778000EF0984204FA02F408D91CEB030301F1C5
:10078800FF382FD298422DD9023963441B1AADB2D3
:10079800B3FBF7F007FB103345EA034500FB0EF304
:1007A800AB4208D91CEB050500F1FF3816D2AB4265
:1007B80014D902386544ED1A40EA014138E7314658
:1007C800304607E78646E5E61846FAE64B45A9D2DD
:1007D800B9EB020864EB0C0E0138A3E74046EAE7E0
:1007E800204694E74146D1E7D0467BE7023B654483
:1007F80032E7084609E76444023842E7704700BF19
:1008080000B585B0BDF818C04FF0FF0E8DF800E0B8
:100818008DF801E08DF8021009218DF803100321ED
:100828008DF804102A218DF805108DF80620120A7B
:100838008DF807208DF808301B0A8DF809308DF8DF
:100848000AC04FEA1C2C8DF80BC00223002206E0D8
:1008580003F11001694411F8101C0A4401330B2BF1
:10086800F6DDD2438DF80C2001230D22694602F0F3
:1008780030F905B05DF804FB00B583B04FF0FF0C0C
:100888008DF800C08DF801C08DF8021004218DF894
:10089800031002218DF804108DF805208DF806301C
:1008A8000B46002206E003F10801694411F8081C10
:1008B8000A440133062BF6DDD2438DF807200123C5
:1008C8000822694602F005F903B05DF804FB000050
:1008D80030B589B0002403940494059406940794D1
:1008E800134BDA6C42F00102DA64DA6C02F00102AE
:1008F8000192019ADA6C42F00202DA64DB6C03F0CE
:1009080002030293029B0B4D22464FF48071284646
:1009180000F02CFC4FF48073039301230493059497
:10092800069403A9284600F033FB09B030BD00BF88
:1009380000100240000400487047000000B583B072
:10094800002000F003F90023009382B2012103483C
:10095800FFF756FF03B05DF804FB00BF5C040020FE
:1009680000B583B0064800F0F1F80023009382B286
:1009780001210448FFF744FF03B05DF804FB00BF02
:100988000000B8425C04002072B6FEE708B51648BD
:10099800164B0360164B436000218160C160016102
:1009A8000C2343618161C1610162416281620B462E
:1009B8000A4602F063FA70B900210B4802F0C3FA44
:1009C80058B90021084802F0E3FA40B9064802F095
:1009D8009BFA30B908BDFFF7D7FFFFF7D5FFFFF740
:1009E800D3FFFFF7D1FF00BF5C04002000380140AF
:1009F80040420F0008B51548154B03604FF4E1332A
:100A0800436000238360C36003610C2242618361F9
:100A1800C36103624362836202F004F970B9002182
:100A28000A4802F090FA58B90021084802F0B0FAD2
:100A380040B9064802F068FA30B908BDFFF7A4FFCC
:100A4800FFF7A2FFFFF7A0FFFFF79EFFEC040020CF
:100A58000044004000B595B03822002106A802F0F5
:100A6800E1FA00200190029003900490059000F0B4
:100A780083FB022306934FF48072099240220A9264
:100A88000D930E9304220F925522109211931293F4
:100A9800139306A800F022FC80B90F2301930323C7
:100AA8000293002303930493059304210DEB0100A3
:100AB80000F0CCFE20B915B05DF804FBFFF764FF29
:100AC800FFF762FF00B583B000F04AF9FFF7C2FFF5
:100AD800FFF7FEFEFFF75AFFFFF78CFF012000F03B
:100AE80061F9174D0123372219462846FFF7C4FE3E
:100AF80004221449144802F06DF900240094234696
:100B0800224601212846FFF77BFE022000F04AF921
:100B180000942346224602212846FFF771FE022050
:100B280000F040F9FFF70AFF4FF47A7000F03AF945
:100B3800FFF716FF4FF47A7000F034F9F2E700BFC0
:100B48005C04002058040020EC04002008B5044987
:100B5800FFF712FC0349FFF75BFBFFF7A9FC08BD91
:100B68000000B44300F07F4582B00A4B1A6E42F091
:100B780001021A661A6E02F001020092009A9A6D3A
:100B880042F080529A659B6D03F080530193019B5C
:100B980002B070470010024010B59AB00446002118
:100BA80015911691179118911991442204A802F0F1
:100BB80039FA2368334A934204D0334A93422DD0FA
:100BC8001AB010BD0123049304A800F065FF10BB00
:100BD8002E4B1A6E42F480421A661A6E02F4804254
:100BE8000092009ADA6C42F00102DA64DB6C03F0DE
:100BF80001030193019B4FF4B053159302231693FD
:100C08000023179318930723199315A94FF09040C1
:100C180000F0BEF9D4E7FFF7B7FED9E70223049343
:100C280004A800F039FF48BB184B9A6D42F4003213
:100C38009A659A6D02F400320292029ADA6C42F0D6
:100C48000102DA64DB6C03F001030393039B0C23BA
:100C580015930223169300241794189407231993C5
:100C680015A94FF0904000F093F92246214626201E
:100C780000F0BEF8262000F0F3F8A1E7FFF784FEA5
:100C8800D2E700BF00380140004400400010024095
:100C9800FEE7FEE7FEE7FEE7FEE7704770477047AE
:100CA80008B500F06DF808BD08B5024801F0B0F8C5
:100CB80008BD00BFEC040020704700000D488546C1
:100CC8000D480E490E4A002302E0D458C45004339C
:100CD800C4188C42F9D30B4A0B4C002301E0136073
:100CE8000432A242FBD3FFF7E7FF02F077F9FFF7E0
:100CF800E9FEFEE700800020000000203C04002000
:100D0800203200083C04002084050020FEE7000093
:100D1800104B1B680BB90120704710B504464FF4FF
:100D28007A70B0FBF3F30C4A1068B0FBF3F000F0F4
:100D3800A5F868B90F2C01D901200AE00022214644
:100D48004FF0FF3000F054F8044B1C60002000E026
:100D5800012010BD04000020000000200800002031
:100D680010B5032000F032F80020FFF7D1FF10B1D2
:100D78000124204610BD0446FFF7F6FEF9E70000FF
:100D8800034A1368034909680B441360704700BF9E
:100D98007C05002004000020014B1868704700BF44
:100DA8007C05002038B50446FFF7F6FF0546B4F188
:100DB800FF3F02D0044B1B681C44FFF7EDFF401BAC
:100DC800A042FAD338BD00BF04000020074AD36808
:100DD80023F4E0631B041B0C000200F4E0600343EF
:100DE80043F0BF6343F40033D360704700ED00E085
:100DF80000B5194BDB68C3F30223C3F1070CBCF140
:100E0800040F28BF4FF0040C03F1040EBEF1060FC7
:100E180018D9033B4FF0FF3E0EFA0CFC21EA0C01F7
:100E280099400EFA03F322EA0303194300280BDB67
:100E38000901C9B200F1604000F5614080F8001373
:100E48005DF804FB0023E5E700F00F000901C9B2D3
:100E5800024B1954F4E700BF00ED00E014ED00E088
:100E6800002807DB00F01F02400901239340024AD3
:100E780042F82030704700BF00E100E00138B0F1CF
:100E8800807F0BD24FF0E0235861054AF02182F8A9
:100E980023100020986107221A61704701207047CB
:100EA80000ED00E0034690F82520D2B2022A09D0CE
:100EB8000422C2630120012283F82520002283F83E
:100EC8002420704701680A6822F00E020A60816CCB
:100ED8000A6822F480720A6001680A6822F0010236
:100EE8000A60426C02F01F01006C01228A404260D5
:100EF800DA6C196D51605A6D42B1116821F4807134
:100F080011609A6DD96D51600020D4E70020D2E7B6
:100F180008B590F82530DBB2022B09D00423C3634F
:100F2800012380F82530002280F82420184608BDC7
:100F38000268136823F00E0313600268136823F035
:100F480001031360826C136823F480731360436C8D
:100F580003F01F02016C012393404B60C36C026DC8
:100F68005A60436D33B11A6822F480721A60836D37
:100F7800C26D5A60012380F82530002380F82430A0
:100F8800836B13B198470020D1E70020CFE700001A
:100F980070B582B0002365E085685E000324B44024
:100FA80025EA0405CC68B4402C438460446824EAEC
:100FB8000C0C4C68C4F300149C4044EA0C044460D4
:100FC80061E0DD08083550F8256003F007044FEAB2
:100FD800840C0F2404FA0CF426EA040E0C6904FAB3
:100FE8000CF444EA0E0440F8254063E0052400E0D0
:100FF800002404FA0EF42C430CF1020C574D45F86A
:101008002C40574CA568D44325EA0206D1F804C001
:101018001CF4801F01D042EA0506514DAE60ED6810
:1010280004EA0506D1F804C01CF4001F01D042EA06
:1010380005064B4DEE606D6804EA0506D1F804C05C
:101048001CF4003F01D042EA0506454D6E602D684C
:101058002C404E6816F4803F01D042EA0504404A0D
:10106800146001330A6832FA03F474D04FF0010CAB
:101078000CFA03FC1CEA0202F3D04C6804F00304E7
:10108800013C012C88D94C6804F00304032C0CD0D3
:10109800C4685D004FF0030C0CFA05FC24EA0C0C44
:1010A8008C68AC4044EA0C04C4604C6804F0030447
:1010B800022C86D004684FEA430E4FF0030C0CFA5A
:1010C8000EFC24EA0C0C4C6804F0030404FA0EF439
:1010D80044EA0C0404604C6814F4403FC1D0214C2D
:1010E800256E45F001052566246E04F0010401947F
:1010F800019C4FEA930C0CF10205184C54F825504A
:1011080003F003044FEA840E0F2404FA0EF425EAD0
:101118000405B0F1904F3FF46BAF134CA04212D0CE
:1011280004F58064A04210D004F58064A0420ED07B
:1011380004F58064A0420CD004F58064A0423FF41A
:1011480055AF062455E7012453E7022451E7032449
:101158004FE704244DE702B070BD00BF0000014016
:101168000004014000100240000400480AB18161F7
:101178007047816270470000002836D13E4B1B68DB
:1011880003F4C063B3F5806F08D03B4AD2F88030CF
:1011980023F48073C2F8803000207047364AD2F8B2
:1011A800803023F48073C2F88030136823F4C0635E
:1011B80043F400731360314B1B68322202FB03F3C4
:1011C8002F4AA2FB03239B0C013300E0013B2A4A70
:1011D800526912F4806F01D0002BF7D1264B5B695E
:1011E80013F4806F44D100207047B0F5007F08D019
:1011F800214A136823F4C06343F48063136000201A
:1012080070471D4B1B6803F4C063B3F5806F08D0AB
:10121800194AD2F8803043F48073C2F88030002035
:101228007047154AD2F8803043F48073C2F8803092
:10123800136823F4C06343F4007313600F4B1B68F7
:10124800322202FB03F30E4AA2FB03239B0C013359
:1012580000E0013B084A526912F4806F01D0002B6C
:10126800F7D1054B5B6913F4806F03D100207047F9
:1012780003207047032070470070004000000020E2
:1012880083DE1B43124BDA6802F00302D868C0F30E
:101298000310431C032A11D00E48B0FBF3F00C4B8B
:1012A800DB68C3F3062303FB00F0094BDB68C3F3D9
:1012B800416301335B00B0FBF3F070470648B0FBB5
:1012C800F3F0034BDB68C3F3062303FB00F0ECE702
:1012D800001002400024F40000127A00002800F0F8
:1012E800548270B582B00446036813F0010F37D0FA
:1012F800A44A936803F00C03D26802F003020C2B93
:1013080023D0082B23D06368B3F5803F4ED0B3F5C4
:10131800A02F51D09B4B1A6822F480321A601A68A9
:1013280022F480221A606368002B52D0FFF734FD44
:101338000546944B1B6813F4003F11D1FFF72CFDB1
:10134800401B6428F5D9032028E2032AD9D18D4B04
:101358001B6813F4003F03D06368002B00F017826A
:10136800236813F0020F5DD0864A936803F00C03DC
:10137800D26802F003020C2B3AD0042B3AD0E3686F
:10138800002B75D07F4A136843F480731360FFF70E
:1013980003FD05467B4B1B6813F4806F5FD1FFF795
:1013A800FBFC401B0228F5D90320F7E1754A1368B6
:1013B80043F480331360B6E703F18043A3F53C336D
:1013C8001A6842F480221A601A6842F480321A605D
:1013D800A9E7FFF7E1FC05466A4B1B6813F4003FD9
:1013E800BED0FFF7D9FC401B6428F5D90320D5E10E
:1013F800022AC2D1634B1B6813F4806F03D0E368E1
:10140800002B00F0C6815F4A536823F0FE43216930
:1014180043EA016353605C4B1868FFF779FC0028C6
:1014280040F0B981236813F0080F4CD063699BB36F
:10143800544AD2F8943043F00103C2F89430FFF7CD
:10144800ABFC05464F4BD3F8943013F0020F3AD15A
:10145800FFF7A2FC401B0228F4D903209EE1494A69
:10146800536823F0FE43216943EA01635360D9E7D7
:10147800444A136823F480731360FFF78DFC054614
:10148800404B1B6813F4806FCCD0FFF785FC401BE2
:101498000228F5D9032081E13A4AD2F8943023F0A2
:1014A8000103C2F89430FFF777FC0546354BD3F8B3
:1014B800943013F0020F06D0FFF76EFC401B022891
:1014C800F4D903206AE1236813F0040F00F0818047
:1014D8002C4B9B6D13F0805F36D12A4B9A6D42F0EE
:1014E80080529A659B6D03F080530193019B0125FF
:1014F800264B1B6813F4807F28D0A368012B39D0B2
:10150800052B45D01F4BD3F8902022F00102C3F8D9
:101518009020D3F8902022F00402C3F89020A3680A
:10152800002B43D0FFF738FC0646164BD3F8903013
:1015380013F0020F4CD1FFF72FFC801B41F28833C8
:101548009842F2D9032029E10025D1E70F4A136810
:1015580043F480731360FFF71FFC06460B4B1B68B0
:1015680013F4807FC9D1FFF717FC801B0228F5D937
:10157800032013E1034AD2F8903043F00103C2F884
:101588009030CCE7001002400800002000700040B6
:101598008A4BD3F8902042F00402C3F89020D3F885
:1015A800902042F00102C3F89020B8E7FFF7F4FB5F
:1015B8000646824BD3F8903013F0020F08D0FFF79D
:1015C800EBFB801B41F288339842F2D90320E5E017
:1015D800E5B9236813F0200F35D0A369E3B1774A42
:1015E800D2F8983043F00103C2F89830FFF7D4FBE3
:1015F8000546724BD3F8983013F0020F23D1FFF74A
:10160800CBFB401B0228F4D90320C7E06B4A936D3B
:1016180023F080539365DCE7684AD2F8983023F0CA
:101628000103C2F89830FFF7B7FB0546634BD3F8C0
:10163800983013F0020F06D0FFF7AEFB401B0228CC
:10164800F4D90320AAE0E369002B00F0A6805B4AE6
:10165800926802F00C020C2A69D0022B1DD0574B5D
:101668001A6822F080721A60DA6822F00302DA60DF
:10167800DA6822F0887222F48032DA60FFF78CFB95
:1016880004464E4B1B6813F0007F4ED0FFF784FBD7
:10169800001B0228F5D9032080E0484A136823F08C
:1016A80080731360FFF778FB0546444B1B6813F003
:1016B800007F06D0FFF770FB401B0228F5D90320F6
:1016C8006CE03E4AD3683E491940236A606A013893
:1016D80043EA0013A06A43EA0023206B400801385C
:1016E80043EA4053606B4008013843EA4063E06ACC
:1016F80043EAC0630B43D360136843F080731360FD
:10170800D36843F08073D360FFF746FB04462B4B46
:101718001B6813F0007F06D1FFF73EFB001B022871
:10172800F5D903203AE0002038E0002036E0012B0C
:1017380036D0224BDB6803F00301226A914231D193
:1017480003F0F002616A0139B2EB011F2CD103F4F6
:10175800FE42A16AB2EB012F28D103F07842E16A78
:10176800B2EBC16F24D103F4C001226B5208013AD5
:10177800B1EB425F1ED103F0C063626B5208013ABD
:10178800B3EB426F18D1002008E001207047012018
:1017980004E0012002E0012000E0002002B070BD5A
:1017A8000120FBE70120F9E70120F7E70120F5E731
:1017B8000120F3E70120F1E70120EFE700100240E4
:1017C8000C809F011E4B9B6803F00C03042B33D045
:1017D8001B4B9B6803F00C03082B2FD0184B9B68FE
:1017E80003F00C030C2B01D000207047144BDA686F
:1017F80002F00302D868C0F30310431C032A11D077
:101808001048B0FBF3F00E4BDB68C3F3062303FB71
:1018180000F00B4BDB68C3F3416301335B00B0FBA3
:10182800F3F070470848B0FBF3F0054BDB68C3F3EF
:10183800062303FB00F0ECE70248704702487047B4
:10184800001002400024F40000127A00002800F082
:10185800E680F8B50C460546744B1B6803F00F0389
:101868008B420BD2714A136823F00F030B431360AA
:10187800136803F00F038B4240F0D3802E6816F0F4
:1018880001065FD06B68032B2FD0022B4DD0684B1D
:101898001B6813F4806F00F0C680FFF793FF654B59
:1018A80098424DD9624A936823F0F00343F08003CD
:1018B800936080265E4A936823F0030369680B43AC
:1018C8009360FFF769FA0746594B9B6803F00C03CE
:1018D8006A68B3EB820F35D0FFF75EFAC01B41F29E
:1018E80088339842F0D9032078E0514B1B6813F0F5
:1018F800007F01D1012071E0FFF7C4FC4D4B9842F5
:101908001AD94B4B9B6813F0F00F05D02E6816F0D0
:101918000206CFD0AB688BB9454A936823F0F00331
:1019280043F0800393608026C4E7414B1B6813F49F
:10193800003FB2D1012051E00026BBE70026B9E7FD
:101948000026B7E72B6813F0020F48D013F0040FF6
:1019580004D0374A936843F4E06393602B6813F02C
:10196800080F06D0324A936823F47C5343F4E063AB
:1019780093602F4A936823F0F003A9680B439360A0
:101988002A4B1B6803F00F03A34230D82B6813F0CF
:10199800040F06D0264A936823F4E063E9680B43F2
:1019A80093602B6813F0080F07D0214A936823F43B
:1019B8006053296943EAC1039360FFF703FF1C4B97
:1019C8009B68C3F303131C4AD35C03F01F03D8407E
:1019D8001A4B18601A4B1868FFF79AF9F8BD802E51
:1019E800CED1134A936823F0F0039360C8E70F4AF7
:1019F800136823F00F0323431360FFF7CDF906465E
:101A08000A4B1B6803F00F03A342BFD0FFF7C4F9CA
:101A1800801B41F288339842F2D90320DEE7012087
:101A280070470120DAE70120D8E700BF0020024014
:101A38000010024000B4C404C831000800000020AF
:101A480008000020014B1868704700BF0000002004
:101A580008B5FFF7F7FF054B9B68C3F30223044A59
:101A6800D35C03F01F03D84008BD00BF001002403C
:101A7800D831000808B5FFF7E5FF054B9B68C3F3AD
:101A8800C223044AD35C03F01F03D84008BD00BF3B
:101A980000100240D8310008F0B583B0044603684E
:101AA80013F4002F69D0AE4B9B6D13F0805F1ED1ED
:101AB800AB4B9A6D42F080529A659B6D03F0805350
:101AC8000193019B0126A74A136843F480731360AE
:101AD800FFF762F90546A34B1B6813F4807F08D112
:101AE800FFF75AF9401B0228F5D9032502E0002622
:101AF800E9E7002545BB9A4BD3F8903013F44073BF
:101B080015D0226C9A4212D0954AD2F8903023F41C
:101B18004073D2F8901041F48031C2F89010D2F896
:101B2800901021F48031C2F89010C2F8903013F070
:101B3800010F10D145B98A4AD2F8903023F4407386
:101B4800216C0B43C2F89030C6B1854A936D23F0DF
:101B58008053936512E0FFF71FF90746804BD3F8CF
:101B6800903013F0020FE5D1FFF716F9C01B41F2D0
:101B780088339842F2D90325DCE70025236813F05F
:101B8800010F08D0764AD2F8883023F00303616841
:101B98000B43C2F88830236813F0020F08D0704A4C
:101BA800D2F8883023F00C03A1680B43C2F88830C0
:101BB800236813F0040F08D0694AD2F8883023F05C
:101BC8003003E1680B43C2F88830236813F0080F2C
:101BD80008D0634AD2F8883023F0C00321690B4348
:101BE800C2F88830236813F0200F08D05C4AD2F876
:101BF800883023F4406361690B43C2F88830236856
:101C080013F0400F08D0564AD2F8883023F44053D6
:101C1800A1690B43C2F88830236813F0800F08D0FD
:101C28004F4AD2F8883023F44043E1690B43C2F8A5
:101C38008830236813F4807F08D0494AD2F8883066
:101C480023F44033216A0B43C2F88830236813F425
:101C5800007F08D0424AD2F8883023F44023616AD2
:101C68000B43C2F88830236813F4806F0CD03C4AC9
:101C7800D2F8883023F44013A16A0B43C2F88830A5
:101C8800A36AB3F5801F57D0236813F4006F0CD0F4
:101C9800334AD2F8883023F44003E16A0B43C2F890
:101CA8008830E36AB3F5800F4BD0236813F4805F64
:101CB8000CD02B4AD2F8883023F04073216B0B43A9
:101CC800C2F88830236BB3F1807F3FD0236813F4C8
:101CD800005F0CD0224AD2F8883023F04063616B51
:101CE8000B43C2F88830636BB3F1006F33D02368BD
:101CF80013F4804F0CD01A4AD2F8883023F040638E
:101D0800A16B0B43C2F88830A36BB3F1006F2BD0E3
:101D1800236813F4004F0CD0114AD2F8883023F00E
:101D28004053E16B0B43C2F88830E36BB3F1805F3B
:101D38001FD0284603B0F0BDD36843F48013D360A6
:101D4800A2E7D36843F48013D360AEE7D36843F4C3
:101D58008013D360BAE7D36843F48013D360C6E72F
:101D68000010024000700040D36843F48013D36031
:101D7800CEE7D36843F48033D360DAE7026852E8E9
:101D8800003F23F4907342E800310029F6D102683D
:101D980002F1080353E8003F23F0805323F00103C6
:101DA800083242E800310029F1D1C36E012B06D078
:101DB8002023C0F888300023C36603677047026891
:101DC80052E8003F23F0100342E800310029F6D121
:101DD800EEE7704708B5026852E8003F23F0400379
:101DE80042E800310029F6D12023C0F884300023CE
:101DF8004367FFF7EEFF08BD704708B5806A002308
:101E0800A0F85E30A0F85630FFF7F6FF08BD70471F
:101E180070B504460168CB6908688D6840F60F0202
:101E28001A4008D113F0200F05D010F0200F34D13C
:101E380015F0805F31D12AB1954A2A4033D1954EA9
:101E4800304230D1E26E012A00F0C38013F4801FC3
:101E580003D015F4800F40F05B8113F0800F07D09A
:101E680010F0800F40F05B8115F4000F40F05781AF
:101E780013F0400F03D010F0400F40F0578113F4D7
:101E8800000F03D010F0804F40F0548113F0807F92
:101E980002D00028C0F2528170BD236F002BFBD006
:101EA80020469847F8E713F0010F09D010F4807F17
:101EB80006D001260E62D4F88C103143C4F88C1079
:101EC80013F0020F0BD015F0010F08D0216802267D
:101ED8000E62D4F88C1041F00401C4F88C1013F091
:101EE800040F0BD015F0010F08D0216804260E62EC
:101EF800D4F88C1041F00201C4F88C1013F0080FCC
:101F08000BD010F0200F00D13AB1226808211162DD
:101F1800D4F88C200A43C4F88C2013F4006F0CD03A
:101F280010F0806F09D022684FF400611162D4F874
:101F38008C2042F02002C4F88C20D4F88C20002A8F
:101F4800AAD013F0200F09D010F0200F02D115F0FD
:101F5800805F03D0236F0BB120469847D4F88C20BC
:101F680023689B6813F0400F02D112F0280F29D084
:101F78002046FFF703FF23689B6813F0400F1DD02E
:101F8800226802F1080353E8003F23F040030832B7
:101F980042E800310029F3D1E36F5BB13E4A9A630E
:101FA800E06FFEF7B5FF00283FF476AFE06F836B74
:101FB800984771E72046FFF71FFF6DE72046FFF7B8
:101FC8001BFF69E72046FFF717FF0023C4F88C3092
:101FD80062E713F0100F3FF439AF10F0100F3FF421
:101FE80035AF10230B6223689B6813F0400F55D060
:101FF800E26F13685B689BB2002B3FF44DAFB4F8F7
:102008005C1099427FF648AFA4F85E3013681B68ED
:1020180013F0200F31D1226852E8003F23F4807377
:1020280042E800310029F6D1226802F1080353E89A
:10203800003F23F00103083242E800310029F3D1C0
:10204800226802F1080353E8003F23F040030832F6
:1020580042E800310029F3D12023C4F88830002356
:10206800E366226852E8003F23F0100342E800319B
:102078000029F6D1E06FFEF715FFB4F85C10B4F84C
:102088005E309BB2C91A89B22046FFF7C0FE03E74B
:102098000100001020010004031E0008B4F85C10C1
:1020A800B4F85E309BB2C91A89B2B4F85E309BB2FC
:1020B800002B3FF4F1AE00293FF4EEAE226852E85F
:1020C800003F23F4907342E800300028F6D12268DC
:1020D80002F1080353E8003F23F0805323F0010383
:1020E800083242E800300028F1D12023C4F88830B3
:1020F8000023E3662367226852E8003F23F01003B9
:1021080042E800300028F6D12046FFF780FEC3E6FB
:102118004FF480130B62204600F0F3FEBCE6636FB9
:10212800002B3FF4B9AE20469847B5E62046FFF7A6
:1021380051FEB1E6204600F0E6FEADE6204600F08E
:10214800E1FEA9E608B5B0F86030D0F88820222A68
:1021580005D00268936943F00803936108BD0268DB
:10216800516ADBB2826D0B401370836D0133836556
:10217800B0F85E309BB2013B9BB2A0F85E30B0F87D
:102188005E309BB2002BE9D1026852E8003F23F48D
:10219800907342E800310029F6D1026802F1080381
:1021A80053E8003F23F00103083242E800310029D8
:1021B800F3D12023C0F8883000230367C36E012BB6
:1021C80016D10023C366026852E8003F23F01003CB
:1021D80042E800310029F6D10368DA6912F0100FDD
:1021E80001D010221A62B0F85C10FFF710FEB5E7B4
:1021F800FEF7A2FBB2E708B5B0F86020D0F8883047
:10220800222B05D00268936943F00803936108BD47
:1022180003685B6A816D13400B80836D02338365AD
:10222800B0F85E309BB2013B9BB2A0F85E30B0F8CC
:102238005E309BB2002BEAD1026852E8003F23F4DB
:10224800907342E800310029F6D1026802F10803D0
:1022580053E8003F23F00103083242E80031002927
:10226800F3D12023C0F8883000230367C36E012B05
:1022780016D10023C366026852E8003F23F010031A
:1022880042E800310029F6D10368DA6912F0100F2C
:1022980001D010221A62B0F85C10FFF7B8FDB6E75B
:1022A800FEF74AFBB3E700002DE9F843B0F8606099
:1022B8000368DD69D3F80090D3F80880D0F8882047
:1022C800222A05D09A6942F008029A61BDE8F8838B
:1022D8000446B0F8687008E0D4F88C30002B4CD174
:1022E800B4F85E309BB2002B4ED0002F00F08780F0
:1022F80015F0200F00F083802368596AF3B2A26DAD
:102308000B401370A36D0133A365B4F85E309BB224
:10231800013B9BB2A4F85E302368DD6915F0070F16
:10232800DED015F0010F09D019F4807F06D0012204
:102338001A62D4F88C301343C4F88C3015F0020FAD
:102348000BD018F0010F08D0236802221A62D4F8C3
:102358008C3043F00403C4F88C3015F0040FBBD064
:1023680018F0010FB8D0236804221A62D4F88C3010
:1023780043F00203C4F88C30AEE72046FFF73CFD7B
:102388000023C4F88C30ABE7226852E8003F23F4FE
:10239800807342E800310029F6D1226802F108036F
:1023A80053E8003F23F0805323F00103083242E84A
:1023B80000310029F1D12023C4F888300023236795
:1023C800E36E012B03D02046FEF7B6FA8DE7002313
:1023D800E366226852E8003F23F0100342E8003128
:1023E8000029F6D12368DA6912F0100F01D0102203
:1023F8001A62B4F85C102046FFF709FD75E7B4F8D7
:102408005E309BB2002B3FF461AFB4F868209A426B
:102418007FF65CAF226802F1080353E8003F23F01F
:102428008053083242E800310029F3D1054B236775
:10243800226852E8003F43F0200342E800310029B7
:10244800F6D143E74D2100082DE9F843B0F8606064
:102458000368DD69D3F80090D3F80880D0F88820A5
:10246800222A05D09A6942F008029A61BDE8F883E9
:102478000446B0F8687008E0D4F88C30002B4BD1D3
:10248800B4F85E309BB2002B4DD0002F00F0868050
:1024980015F0200F00F0828023685B6AA26D33403C
:1024A8001380A36D0233A365B4F85E309BB2013B81
:1024B8009BB2A4F85E302368DD6915F0070FDFD002
:1024C80015F0010F09D019F4807F06D001221A6295
:1024D800D4F88C301343C4F88C3015F0020F0BD0AD
:1024E80018F0010F08D0236802221A62D4F88C3041
:1024F80043F00403C4F88C3015F0040FBCD018F076
:10250800010FB9D0236804221A62D4F88C3043F042
:102518000203C4F88C30AFE72046FFF76DFC0023B8
:10252800C4F88C30ACE7226852E8003F23F480738B
:1025380042E800310029F6D1226802F1080353E885
:10254800003F23F0805323F00103083242E80031B2
:102558000029F1D12023C4F8883000232367E36ED3
:10256800012B03D02046FEF7E7F98EE70023E36648
:10257800226852E8003F23F0100342E800310029A6
:10258800F6D12368DA6912F0100F01D010221A620E
:10259800B4F85C102046FFF73AFC76E7B4F85E30F2
:1025A8009BB2002B3FF462AFB4F868209A427FF6E2
:1025B8005DAF226802F1080353E8003F23F080531F
:1025C800083242E800310029F3D1064B236722681C
:1025D80052E8003F43F0200342E800310029F6D1D9
:1025E80044E700BFFF21000870B50446016883680E
:1025F8000269134342691343C269134308688B4A4B
:10260800024013430B602268536823F44053E16887
:102618000B435360A1692268854B9A4201D0236A13
:102628001943936823F06E4323F430630B4393609C
:102638002268D36A23F00F03616A0B43D3622368CD
:102648007C4A934223D07C4A934234D07B4A9342BB
:102658004AD07B4A934259D0754A934268D0102297
:1026680073498B4200F09580E069B0F5004F00F0A7
:10267800D280082A00F24F81DFE812F012013401FB
:1026880010014D0137014D014D014D013A0102F58F
:102698005842D2F8882002F00302032A09D8DFE85A
:1026A80002F002045C060122DAE70422D8E70822D5
:1026B800D6E71022D4E702F5E632D2F8882002F0F5
:1026C8000C020C2A0ED8DFE802F0070D0D0D090DDB
:1026D8000D0D4A0D0D0D0B000022C1E70422BFE7C6
:1026E8000822BDE71022BBE702F5E432D2F88820C1
:1026F80002F03002202A34D004D8A2B3102A34D1F0
:102708000422ADE7302A32D10822A9E702F5E232E5
:10271800D2F8882002F0C002802A2AD004D852B306
:10272800402A2AD104229BE7C02A28D1082297E709
:1027380002F5C832D2F8882002F44062B2F5006F80
:102748001FD005D8FAB1B2F5806F1ED1042287E7F1
:10275800B2F5406F1BD1082282E7022280E70222ED
:102768007EE702227CE700227AE7102278E710222F
:1027780076E7022274E7002272E7102270E710223F
:102788006EE702226CE700226AE7102268E710224F
:1027980066E7082A00F2AF80DFE802F008AD3BAD3B
:1027A80038ADADAD05004FF4004004E0FFF750F937
:1027B800002800F0A280626A224B33F81220B0FB96
:1027C800F2F3656805EB4501994200F29880B3EB96
:1027D800053F00F29680002633463146FDF78EFE0F
:1027E800090241EA106100026B08C0182A46334604
:1027F80041F10001FDF782FEA0F54072124B9A42AA
:1028080000F281802368D860304662E0FEF7DAFF84
:10281800CEE70E48CFE7082A77D8DFE802F0193963
:1028280005763C7676761D00084815E0F369FFCFFB
:10283800008000400038014000440040004800404B
:10284800004C0040E0310008FFFC0F000024F400B9
:10285800FFF7FEF800285AD0626A324B33F812307C
:10286800B0FBF3F06268530803EB4000B0FBF2F0F2
:10287800A0F110024FF6EF739A424AD883B223F0C0
:102888000F03C0F3420018432368D860002020E0FB
:10289800FFF7F0F8DEE7FEF795FFDBE7224803E0F5
:1028A800FFF7D6F8002838D0626A1E4B33F812308A
:1028B800B0FBF3F0636800EB5300B0FBF3F0A0F15A
:1028C80010024FF6EF739A4229D8236880B2D86075
:1028D80000200123A4F86A30A4F868300023236795
:1028E800636770BDFFF7C6F8DCE7FEF76BFFD9E753
:1028F8004FF40040D8E70120EBE70020E9E701208A
:10290800E7E70120E5E70120E3E70120E1E7002010
:10291800DFE70120DDE70120DBE70020D9E7012020
:10292800D7E700BFE03100080024F400836A13F001
:10293800010F06D00268536823F40033C16A0B43C1
:102948005360836A13F0020F06D00268536823F4B9
:102958008033016B0B435360836A13F0040F06D076
:102968000268536823F48023416B0B435360836AE6
:1029780013F0080F06D00268536823F40043816BF4
:102988000B435360836A13F0100F06D002689368F4
:1029980023F48053C16B0B439360836A13F0200FB9
:1029A80006D00268936823F40053016C0B439360CC
:1029B800836A13F0400F0AD00268536823F4801327
:1029C800416C0B435360436CB3F5801F0BD0836A93
:1029D80013F0800F06D00268536823F40023C16CFB
:1029E8000B43536070470268536823F4C003816C3B
:1029F8000B435360EBE72DE9F84305460F461646AF
:102A08009946DDF820802C68E46937EA04030CBF96
:102A18004FF0010C4FF0000CB44557D1B8F1FF3F0F
:102A2800F1D0FEF7B9F9A0EB090040452FD8B8F16D
:102A3800000F2CD02B681A6812F0040FE3D0DA6963
:102A480012F4006FDFD04FF400621A622A6852E86D
:102A5800003F23F4D07342E800310029F6D12A68F8
:102A680002F1080353E8003F23F00103083242E86B
:102A780000310029F3D12023C5F88430C5F8883007
:102A8800C5F88C30002385F8803003201FE02A68C1
:102A980052E8003F23F4D07342E800310029F6D110
:102AA8002A6802F1080353E8003F23F001030832C3
:102AB80042E800310029F3D12023C5F88430C5F855
:102AC8008830002385F88030032000E00020BDE82E
:102AD800F8832DE9F04182B01E46D0F88430202BCF
:102AE80058D104460D469046002957D0002A57D0A1
:102AF80090F88030012B55D0012380F880300023D6
:102B0800C0F88C302123C0F88430FEF745F9074619
:102B1800A4F85480A4F85680A368B3F5805F05D064
:102B28004FF00008002384F8803014E0236913B1C3
:102B38004FF00008F6E7A8460025F3E738F8023B0F
:102B48002268C3F308039362B4F8562092B2013A9C
:102B580092B2A4F85620B4F856309BB273B10096DE
:102B68003B46002280212046FFF745FFE0B9002DB3
:102B7800E4D015F8012B23689A62E5E700963B46F6
:102B8800002240212046FFF736FF78B92023C4F8F9
:102B9800843000E0022002B0BDE8F0810120FAE7AD
:102BA8000120F8E70220F6E70320F4E70320F2E724
:102BB80030B583B004460023C0F88C30FEF7ECF83B
:102BC80005462268126812F0080F0FD123681B68A7
:102BD80013F0040F18D12023C4F88430C4F88830C7
:102BE8000020E06684F8800003B030BD6FF07E43BB
:102BF8000093034600224FF400112046FFF7FBFE26
:102C08000028E3D00320EFE76FF07E4300932B46C4
:102C180000224FF480012046FFF7EDFE0028DAD0AD
:102C28000320E1E778B310B50446D0F884300BB33D
:102C38002423C4F884302268136823F00103136046
:102C48002046FFF7D1FC012813D0A36ABBB922683C
:102C5800536823F4904353602268936823F02A034F
:102C680093602268136843F0010313602046FFF75E
:102C78009FFF10BD80F88030FDF78EFFD8E7204613
:102C8800FFF754FEE3E701207047000010B48165A8
:102C9800A0F85C20A0F85E20002303678368B3F5E2
:102CA800805F06D0A3B9036973B9FF23A0F8603029
:102CB80014E0036923B940F2FF13A0F860300DE077
:102CC800FF23A0F8603009E07F23A0F8603005E01A
:102CD800B3F1805F30D00023A0F860300023C0F843
:102CE8008C302223C0F88830016801F1080353E8CA
:102CF800003F43F00103083141E80034002CF3D1D0
:102D0800436EB3F1005F21D08368B3F5805F48D08C
:102D18002C4B0367002380F880300369002B46D0D2
:102D2800026852E8003F43F4907342E800310029FA
:102D3800F6D1002010BC704703691BB97F23A0F8A7
:102D48006030CBE73F23A0F86030C7E7B0F86830C1
:102D58009342D9D88368B3F5805F1CD01A4B0367B8
:102D6800002380F88030036943B1026852E8003FCD
:102D780043F4807342E800310029F6D1026802F179
:102D8800080353E8003F43F08053083242E800311B
:102D98000029F3D1CDE70369002BDFD10B4B036783
:102DA800DEE70369002BB3D1094B0367B2E702687A
:102DB80052E8003F43F0200342E800310029F6D1F1
:102DC800B7E700BF4D210008B122000851240008D0
:102DD800FF21000838B5D0F88830202B1ED1F9B172
:102DE80002B390F88030012B1ED0012380F8803088
:102DF8000023C36603680D4CA3420CD05B6813F430
:102E0800000F08D0046854E8003F43F0806344E8AA
:102E18000035002DF6D1FFF739FF00E0022038BD5C
:102E28000120FCE70120FAE70220F8E700800040D3
:102E3800436E2BB90123A0F86A30A0F868307047B8
:102E480030B403689A68C2F342629968490F094D21
:102E58006B5CDB00084C615C93FBF1F3A0F86A3013
:102E6800AB5CDB00A25C93FBF2F3A0F8683030BCEB
:102E7800704700BF00320008F831000800283ED033
:102E8800F8B50F4616461D460446D0F884306BB395
:102E98002423C4F884302268136823F001031360E4
:102EA8002046FFF7A1FB01281FD0A36A1BBB22689D
:102EB800936843F4804393602268936823F4004343
:102EC8003B4393602D0445EA465523681A6822F06F
:102ED8007F7222F440322A431A602268136843F052
:102EE800010313602046FFF763FEF8BD80F88030C9
:102EF800FDF752FECCE72046FFF718FDD7E7012083
:102F0800704770477047704790F88030012B18D091
:102F1800012380F880302423C0F8843003681A68BD
:102F2800196821F00101196022F00052002343665C
:102F380001680A602022C0F8842080F88030184692
:102F480070470220704738B590F88030012B1DD0AB
:102F58000446012380F880302423C0F884300368B5
:102F68001D681A6822F001021A600268936823F04B
:102F7800604319439160FFF75BFF23681D602023BE
:102F8800C4F88430002084F8800038BD0220FCE7B3
:102F980038B590F88030012B1DD00446012380F805
:102FA80080302423C0F8843003681D681A6822F032
:102FB80001021A600268936823F060631943916004
:102FC800FFF736FF23681D602023C4F884300020F3
:102FD80084F8800038BD0220FCE7000070B50D4E73
:102FE8000D4D761BB61006D0002455F8043B01346D
:102FF8009847A642F9D1094E094D761B00F0D4F83E
:10300800B61006D0002455F8043B01349847A64270
:10301800F9D170BD14320008143200081C320008BF
:1030280014320008830730B548D0541E002A3FD018
:10303800CAB2034601E0013C3AD303F8012B9D07CD
:10304800F9D1032C2DD9CDB245EA05250F2C45EA37
:10305800054536D9A4F1100222F00F0C03F1200E19
:10306800E6444FEA121C03F1100242E9045542E912
:10307800025510327245F8D10CF1010214F00C0F10
:1030880003EB021204F00F0C13D0ACF1040323F08D
:1030980003030433134442F8045B9342FBD10CF05E
:1030A80003042CB1CAB21C4403F8012B9C42FBD187
:1030B80030BD64461346002CF4D1F9E703461446A4
:1030C800BFE71A46A446E0E7024B13B1024800F0F6
:1030D80005B8704700000000F130000800230146E1
:1030E8001A46184600F01AB838B5084B084D5B1B4D
:1030F8009C1007D0043B1D44013C55F804399847FF
:10310800002CF9D1BDE8384000F054B8203200084E
:103118001C320008704700BF704700BF2DE9F04718
:10312800DFF87CA00646DAF8000098460F4691467C
:10313800FFF7F0FF1B4B1B68D3F8484124B36568C1
:103148001F2D26DC5EB96B1C0235DAF800006360BF
:1031580044F82570FFF7E0FF0020BDE8F08704EB96
:1031680085010123C1F88890D4F88821AB401A431F
:10317800022EC4F88821C1F80881E4D1D4F88C2142
:103188001343C4F88C31DEE703F5A674C3F848414D
:10319800D5E7DAF80000FFF7BFFF4FF0FF30DCE7B4
:1031A8003804002008320008F8B500BFF8BC08BC95
:1031B8009E467047F8B500BFF8BC08BC9E467047ED
:1031C80000000000000000000102030406070809CF
:1031D80000000000010203040100020004000600D0
:1031E80008000A000C0010002000400080000001C8
:1031F800080402040801010101010103070100009C
:043208001000002092
:08320C0028D3FF7F0100000040
:08321400D1300008FD010008A3
:04321C00D9010008CC
:103220000024F40001000000100000000000000075
:1032300000000000FC02002064030020CC030020FA
:10324000000000000000000000000000000000007E
:10325000000000000000000000000000000000006E
:10326000000000000000000000000000000000005E
:10327000000000000000000000000000000000004E
:10328000000000000000000000000000000000003E
:10329000000000000000000000000000000000002E
:1032A000000000000000000000000000000000001E
:1032B000000000000000000000000000000000000E
:1032C00000000000000000000000000000000000FE
:1032D00000000000000000000100000000000000ED
:1032E0000E33CDAB34126DE6ECDE05000B000000B2
:1032F00000000000000000000000000000000000CE
:1033000000000000000000000000000000000000BD
:1033100000000000000000000000000000000000AD
:10332000000000000000000000000000000000009D
:0C365000000000000000000080050020C9
:0400000508000CC51E
:00000001FF
