:020000040800F2
:10000000008000200D1D0008251C0008271C00088A
:10001000291C00082B1C00082D1C000800000000F3
:100020000000000000000000000000002F1C00087D
:10003000311C000800000000331C0008351C0008BB
:100040005D1D00085D1D00085D1D00085D1D0008A8
:100050005D1D00085D1D00085D1D00085D1D000898
:100060005D1D00085D1D00085D1D00085D1D000888
:100070005D1D00085D1D00085D1D00085D1D000878
:100080005D1D0008000000005D1D00085D1D0008EA
:100090005D1D00085D1D00085D1D00085D1D000858
:1000A0005D1D00085D1D00085D1D00085D1D000848
:1000B0005D1D00085D1D00085D1D00085D1D000838
:1000C0005D1D00085D1D00085D1D00085D1D000828
:1000D0005D1D00085D1D00083D1C00085D1D000839
:1000E0005D1D00085D1D00085D1D00085D1D000808
:1000F0005D1D00085D1D00085D1D0008000000007A
:10010000000000005D1D0008000000005D1D0008EB
:100110005D1D0008000000005D1D00085D1D000859
:100120005D1D00085D1D00085D1D00085D1D0008C7
:100130005D1D000800000000000000005D1D0008BB
:100140005D1D00085D1D00080000000000000000AB
:10015000000000000000000000000000000000009F
:100160000000000000000000000000005D1D00080D
:100170005D1D0008000000000000000000000000FD
:10018000000000005D1D00080000000000000000ED
:10019000000000000000000000000000000000005F
:1001A00000000000000000005D1D00085D1D00084B
:1001B0005D1D00085D1D00085D1D000800000000B9
:1001C000000000005D1D00080000000000000000AD
:0801D0005D1D00085D1D000823
:1002000010B5054C237833B9044B13B10448AFF350
:1002100000800123237010BDBC09002000000000F5
:100220003C8E000808B5034B1BB103490348AFF3EC
:10023000008008BD00000000C00900203C8E0008BE
:100240004FEA4102B2F1E04324BFB3F5001CDCF1F8
:10025000FE5C0DD901F0004C4FEAC0024CEA507030
:10026000B2F1004F40EB830008BF20F0010070475F
:1002700011F0804F21D113F13872BCBF01F0004062
:10028000704741F480114FEA5252C2F11802C2F194
:10029000200C10FA0CF320FA02F018BF40F0010015
:1002A0004FEAC1234FEAD32303FA0CFC40EA0C00C7
:1002B00023FA02F34FEA4303CCE77FEA625307D104
:1002C00050EA01331EBF4FF0FE4040F4400070473B
:1002D00001F0004040F0FE4040F40000704700BFD5
:1002E00080F0004002E000BF81F0004142001FBFEB
:1002F0005FEA410392EA030F7FEA226C7FEA236CF4
:100300006AD04FEA1262D2EB1363C1BFD2184140E8
:1003100048404140B8BF5B42192B88BF704710F07E
:10032000004F40F4000020F07F4018BF404211F021
:10033000004F41F4000121F07F4118BF494292EA89
:10034000030F3FD0A2F1010241FA03FC10EB0C00B5
:10035000C3F1200301FA03F100F0004302D5494242
:1003600060EB4000B0F5000F13D3B0F1807F06D3EF
:1003700040084FEA310102F10102FE2A51D2B1F1E7
:10038000004F40EBC25008BF20F0010040EA0300DC
:100390007047490040EB0000013A28BFB0F5000F5C
:1003A000EDD2B0FA80FCACF1080CB2EB0C0200FA12
:1003B0000CF0AABF00EBC25052421843BCBFD04061
:1003C0001843704792F0000F81F4000106BF80F4DB
:1003D00000000132013BB5E74FEA41037FEA226C9E
:1003E00018BF7FEA236C21D092EA030F04D092F069
:1003F000000F08BF0846704790EA010F1CBF00209D
:10040000704712F07F4F04D1400028BF40F00040F9
:10041000704712F100723CBF00F50000704700F019
:10042000004343F0FE4040F4000070477FEA226240
:1004300016BF08467FEA23630146420206BF5FEA11
:10044000412390EA010F40F4800070474FF0000311
:1004500004E000BF10F0004348BF40425FEA000CD8
:1004600008BF704743F0964301464FF000001CE080
:1004700050EA010208BF70474FF000030AE000BFD6
:1004800050EA010208BF704711F0004302D5404214
:1004900061EB41015FEA010C02BF84460146002086
:1004A00043F0B64308BFA3F18053A3F50003BCFAA1
:1004B0008CF2083AA3EBC25310DB01FA02FC63444E
:1004C00000FA02FCC2F12002BCF1004F20FA02F255
:1004D00043EB020008BF20F00100704702F1200248
:1004E00001FA02FCC2F1200250EA4C0021FA02F2A9
:1004F00043EB020008BF20EADC7070474FF0FF0CAE
:100500001CEAD0521EBF1CEAD15392EA0C0F93EAA8
:100510000C0F6FD01A4480EA010C400218BF5FEA4A
:1005200041211ED04FF0006343EA501043EA5111BD
:10053000A0FB01310CF00040B1F5000F3EBF4900B7
:1005400041EAD3715B0040EA010062F17F02FD2ABB
:100550001DD8B3F1004F40EBC25008BF20F001009E
:10056000704790F0000F0CF0004C08BF49024CEAB5
:10057000502040EA51207F3AC2BFD2F1FF0340EA47
:10058000C250704740F400004FF00003013A5DDCB8
:1005900012F1190FDCBF00F000407047C2F10002F9
:1005A000410021FA02F1C2F1200200FA02FC5FEAE6
:1005B000310040F1000053EA4C0308BF20EADC7030
:1005C000704792F0000F00F0004C02BF400010F4A2
:1005D000000F013AF9D040EA0C0093F0000F01F04F
:1005E000004C02BF490011F4000F013BF9D041EA71
:1005F0000C018FE70CEAD15392EA0C0F18BF93EA73
:100600000C0F0AD030F0004C18BF31F0004CD8D19C
:1006100080EA010000F00040704790F0000F17BF23
:1006200090F0004F084691F0000F91F0004F14D069
:1006300092EA0C0F01D142020FD193EA0C0F03D1C1
:100640004B0218BF084608D180EA010000F00040C4
:1006500040F0FE4040F40000704740F0FE4040F49F
:10066000400070474FF0FF0C1CEAD0521EBF1CEA3E
:10067000D15392EA0C0F93EA0C0F69D0A2EB03025C
:1006800080EA010C49024FEA402037D04FF08053F6
:1006900043EA111143EA10130CF000408B4238BFBB
:1006A0005B0042F17D024FF4000C8B4224BF5B1AC9
:1006B00040EA0C00B3EB510F24BFA3EB510340EA17
:1006C0005C00B3EB910F24BFA3EB910340EA9C00C5
:1006D000B3EBD10F24BFA3EBD10340EADC001B0135
:1006E00018BF5FEA1C1CE0D1FD2A3FF650AF8B42D9
:1006F00040EBC25008BF20F0010070470CF0004CE6
:100700004CEA50207F32C2BFD2F1FF0340EAC25010
:10071000704740F400004FF00003013A37E792F0D1
:10072000000F00F0004C02BF400010F4000F013A2F
:10073000F9D040EA0C0093F0000F01F0004C02BF2A
:10074000490011F4000F013BF9D041EA0C0195E793
:100750000CEAD15392EA0C0F08D142027FF47DAF2C
:1007600093EA0C0F7FF470AF084676E793EA0C0F1C
:1007700004D14B023FF44CAF08466EE730F0004C1A
:1007800018BF31F0004CCAD130F000427FF45CAFAA
:1007900031F000437FF43CAF5FE700BF4FEA400217
:1007A000B2F1FE4F0FD34FF09E03B3EB12620DD99F
:1007B0004FEA002343F0004310F0004F23FA02F009
:1007C00018BF404270474FF00000704712F1610FB0
:1007D00001D1420205D110F0004008BF6FF0004087
:1007E00070474FF00000704753B94AB9002908BF5D
:1007F00000281CBF4FF0FF314FF0FF3000F074B9FC
:10080000ADF1080C6DE904CE00F006F8DDF804E067
:10081000DDE9022304B070472DE9F047089E0D463C
:1008200004468846002B4DD18A42944668D9B2FAD4
:1008300082F252B101FA02F3C2F1200120FA01F171
:100840000CFA02FC41EA030894404FEA1C45210CD3
:10085000B8FBF5FE1FFA8CF705FB1E8341EA034344
:100860000EFB07F199420BD91CEB03030EF1FF308D
:1008700080F01E81994240F21B81AEF1020E63446A
:100880005B1AA4B2B3FBF5F005FB103344EA034452
:1008900000FB07F7A7420AD91CEB040400F1FF3361
:1008A00080F00881A74240F2058164440238E41BCD
:1008B00040EA0E4000211EB1D4400023C6E90043A7
:1008C000BDE8F0878B4208D9002E00F0EE800021B1
:1008D000C6E900050846BDE8F087B3FA83F10029B0
:1008E0004AD1AB4202D3824200F2F980841A65EB0E
:1008F000030301209846002EE2D0C6E90048DFE756
:1009000002B9FFDEB2FA82F2002A40F09180A1EB38
:100910000C054FEA1C471FFA8CFE0121B5FBF7F3CB
:1009200007FB1350250C45EA00450EFB03F0A842D7
:1009300008D91CEB050503F1FF3802D2A84200F2EA
:10094000CB8043462D1AA4B2B5FBF7F007FB105538
:1009500044EA05440EFB00FEA64508D91CEB04043E
:1009600000F1FF3502D2A64500F2BB802846A4EB79
:100970000E0440EA03409EE7C1F120078B4022FAB3
:1009800007FC4CEA030C20FA07F405FA01F31C43B8
:10099000FD404FEA1C4900FA01F3B5FBF9F8200CC1
:1009A0001FFA8CFE09FB185540EA054508FB0EF0BE
:1009B000A84202FA01F20BD91CEB050508F1FF3A37
:1009C00080F08880A84240F28580A8F10208654442
:1009D0002D1AA4B2B5FBF9F009FB105544EA054500
:1009E00000FB0EFEAE4508D91CEB050500F1FF34F7
:1009F0006CD2AE456AD90238654440EA0840A0FB93
:100A00000294A5EB0E05A542C846A64656D353D080
:100A10005EB1B3EB080265EB0E0505FA07F722FAA3
:100A200001F3CD401F43C6E900750021BDE8F08702
:100A3000C2F1200320FA03F10CFA02FC25FA03F3B9
:100A400095400D434FEA1C471FFA8CFEB3FBF7F1AC
:100A500007FB11302B0C43EA004301FB0EF09842D8
:100A600004FA02F408D91CEB030301F1FF382FD27A
:100A700098422DD9023963441B1AADB2B3FBF7F08B
:100A800007FB103345EA034500FB0EF3AB4208D9E0
:100A90001CEB050500F1FF3816D2AB4214D9023821
:100AA0006544ED1A40EA014138E73146304607E730
:100AB0008646E5E61846FAE64B45A9D2B9EB0208A8
:100AC00064EB0C0E0138A3E74046EAE7204694E7C2
:100AD0004146D1E7D0467BE7023B654432E7084612
:100AE00009E76444023842E7704700BF844641EAA0
:100AF000000313F003036DD1403A41D351F8043B96
:100B000040F8043B51F8043B40F8043B51F8043BE7
:100B100040F8043B51F8043B40F8043B51F8043BD7
:100B200040F8043B51F8043B40F8043B51F8043BC7
:100B300040F8043B51F8043B40F8043B51F8043BB7
:100B400040F8043B51F8043B40F8043B51F8043BA7
:100B500040F8043B51F8043B40F8043B51F8043B97
:100B600040F8043B51F8043B40F8043B51F8043B87
:100B700040F8043B51F8043B40F8043B403ABDD2F6
:100B8000303211D351F8043B40F8043B51F8043B98
:100B900040F8043B51F8043B40F8043B51F8043B57
:100BA00040F8043B103AEDD20C3205D351F8043B27
:100BB00040F8043B043AF9D2043208D0D2071CBFF3
:100BC00011F8013B00F8013B01D30B88038060461C
:100BD000704700BF082A13D38B078DD010F0030392
:100BE0008AD0C3F10403D21ADB071CBF11F8013B02
:100BF00000F8013B80D331F8023B20F8023B7BE751
:100C0000043AD9D3013A11F8013B00F8013BF9D27B
:100C10000B7803704B7843708B7883706046704715
:100C200000000000000000000000000000000000C4
:100C300000000000000000000000000000000000B4
:100C400090F800F06DE9024520F007016FF0000C0C
:100C500010F0070491F820F040F049804FF00004B4
:100C60006FF00700D1E9002391F840F000F108008F
:100C700082FA4CF2A4FA8CF283FA4CF3A2FA8CF3C7
:100C80004BBBD1E9022382FA4CF200F10800A4FA2E
:100C90008CF283FA4CF3A2FA8CF3E3B9D1E9042382
:100CA00082FA4CF200F10800A4FA8CF283FA4CF3B9
:100CB000A2FA8CF37BB9D1E9062301F1200182FA73
:100CC0004CF200F10800A4FA8CF283FA4CF3A2FA79
:100CD0008CF3002BC6D0002A04BF04301A4612BA87
:100CE000B2FA82F2FDE8024500EBD2007047D1E98A
:100CF000002304F00305C4F100004FEAC50514F019
:100D0000040F91F840F00CFA05F562EA05021CBFE9
:100D100063EA050362464FF00004A9E70000000003
:100D200001F0FF01102A2BDB10F0070F08D010F89C
:100D3000013B013A8B422DD010F0070F42B3F6D1A0
:100D4000F0B441EA012141EA014122F007047FF0B9
:100D500000070023F0E80256083C85EA010586EA10
:100D6000010685FA47F5A3FA87F586FA47F6A5FA4C
:100D700087F68EB9EED1F0BC01F0FF0102F0070258
:100D800032B110F8013B013A83EA010313B1F8D103
:100D90000020704701387047002D06BF35460338E4
:100DA000073815F0010F07D1013015F4807F02BF1D
:100DB000013015F4C03F0130F0BC0138704700BF6E
:100DC00081F0004102E000BF83F0004330B54FEAFC
:100DD00041044FEA430594EA050F08BF90EA020F69
:100DE0001FBF54EA000C55EA020C7FEA645C7FEAFC
:100DF000655C00F0E2804FEA5454D4EB5555B8BF1F
:100E00006D420CDD2C4480EA020281EA030382EA8F
:100E1000000083EA010180EA020281EA0303362D21
:100E200088BF30BD11F0004F4FEA01314FF4801CF4
:100E30004CEA113102D0404261EB410113F0004F06
:100E40004FEA03334CEA133302D0524263EB4303BD
:100E500094EA050F00F0A780A4F10104D5F1200E5B
:100E60000DDB02FA0EFC22FA05F2801841F10001B6
:100E700003FA0EF2801843FA05F359410EE0A5F18A
:100E800020050EF1200E012A03FA0EFC28BF4CF0BB
:100E9000020C43FA05F3C01851EBE37101F0004571
:100EA00007D54FF0000EDCF1000C7EEB00006EEB7E
:100EB0000101B1F5801F1BD3B1F5001F0CD3490808
:100EC0005FEA30004FEA3C0C04F101044FEA44525F
:100ED00012F5800F80F09A80BCF1004F08BF5FEAE6
:100EE000500C50F1000041EB045141EA050130BDC6
:100EF0005FEA4C0C404141EB0101013C28BFB1F5D8
:100F0000801FE9D291F0000F04BF01460020B1FA22
:100F100081F308BF2033A3F10B03B3F120020CDAF5
:100F20000C3208DD02F1140CC2F10C0201FA0CF0D3
:100F300021FA02F10CE002F11402D8BFC2F1200C38
:100F400001FA02F120FA0CFCDCBF41EA0C019040EE
:100F5000E41AA2BF01EB0451294330BD6FEA040437
:100F60001F3C1CDA0C340EDC04F11404C4F1200222
:100F700020FA04F001FA02F340EA030021FA04F334
:100F800045EA030130BDC4F10C04C4F1200220FA8B
:100F900002F001FA04F340EA0300294630BD21FAC9
:100FA00004F0294630BD94F0000F83F4801306BF8F
:100FB00081F480110134013D4EE77FEA645C18BF83
:100FC0007FEA655C29D094EA050F08BF90EA020F1A
:100FD00005D054EA000C04BF1946104630BD91EA12
:100FE000030F1EBF0021002030BD5FEA545C05D115
:100FF0004000494128BF41F0004130BD14F5800454
:101000003CBF01F5801130BD01F0004545F0FE41C7
:1010100041F470014FF0000030BD7FEA645C1ABFFC
:10102000194610467FEA655C1CBF0B46024650EA33
:10103000013406BF52EA033591EA030F41F400215F
:1010400030BD00BF90F0000F04BF0021704730B5E5
:101050004FF4806404F132044FF000054FF00001BA
:1010600050E700BF90F0000F04BF0021704730B57B
:101070004FF4806404F1320410F0004548BF404250
:101080004FF000013EE700BF42004FEAE2014FEAA5
:1010900031014FEA02701FBF12F07F4393F07F4F80
:1010A00081F06051704732F07F4208BF704793F083
:1010B0007F4F04BF41F40021704730B54FF4607496
:1010C00001F0004521F000411CE700BF50EA010299
:1010D00008BF704730B54FF000050AE050EA010242
:1010E00008BF704730B511F0004502D5404261EBB2
:1010F00041014FF4806404F132045FEA915C3FF4F3
:10110000D8AE4FF003025FEADC0C18BF03325FEA8F
:10111000DC0C18BF033202EBDC02C2F1200300FA40
:1011200003FC20FA02F001FA03FE40EA0E0021FA65
:1011300002F11444BDE600BF70B54FF0FF0C4CF453
:10114000E06C1CEA11541DBF1CEA135594EA0C0F05
:1011500095EA0C0F00F0DEF82C4481EA030621EA40
:101160004C5123EA4C5350EA013518BF52EA03357B
:1011700041F4801143F4801338D0A0FB02CE4FF02D
:101180000005E1FB02E506F00042E0FB03E54FF05D
:101190000006E1FB03569CF0000F18BF4EF0010E55
:1011A000A4F1FF04B6F5007F64F5407404D25FEA51
:1011B0004E0E6D4146EB060642EAC62141EA555104
:1011C0004FEAC52040EA5E504FEACE2EB4F1FD0C46
:1011D00088BFBCF5E06F1ED8BEF1004F08BF5FEAC4
:1011E000500E50F1000041EB045170BD06F0004676
:1011F00046EA010140EA020081EA0301B4EB5C0423
:10120000C2BFD4EB0C0541EA045170BD41F480111A
:101210004FF0000E013C00F3AB8014F1360FDEBF3F
:10122000002001F0004170BDC4F10004203C35DA1B
:101230000C341BDC04F11404C4F1200500FA05F39E
:1012400020FA04F001FA05F240EA020001F000423F
:1012500021F0004110EBD37021FA04F642EB0601B5
:101260005EEA430E08BF20EAD37070BDC4F10C04DF
:10127000C4F1200500FA04F320FA05F001FA04F2A3
:1012800040EA020001F0004110EBD37041F100018F
:101290005EEA430E08BF20EAD37070BDC4F120059A
:1012A00000FA05F24EEA020E20FA04F301FA05F202
:1012B00043EA020321FA04F001F0004121FA04F2AA
:1012C00020EA020000EBD3705EEA430E08BF20EA7A
:1012D000D37070BD94F0000F0FD101F000464000B4
:1012E00041EB010111F4801F08BF013CF7D041EA36
:1012F000060195F0000F18BF704703F0004652003A
:1013000043EB030313F4801F08BF013DF7D043EA0A
:101310000603704794EA0C0F0CEA135518BF95EAC0
:101320000C0F0CD050EA410618BF52EA4306D1D147
:1013300081EA030101F000414FF0000070BD50EA66
:10134000410606BF1046194652EA430619D094EAF0
:101350000C0F02D150EA013613D195EA0C0F05D1DA
:1013600052EA03361CBF104619460AD181EA03012E
:1013700001F0004141F0FE4141F470014FF00000E6
:1013800070BD41F0FE4141F4780170BD70B54FF081
:10139000FF0C4CF4E06C1CEA11541DBF1CEA135501
:1013A00094EA0C0F95EA0C0F00F0A7F8A4EB0504E3
:1013B00081EA030E52EA03354FEA013100F08880DA
:1013C0004FEA03334FF0805545EA131343EA1263A3
:1013D0004FEA022245EA111545EA10654FEA002658
:1013E0000EF000419D4208BF964244F1FD0404F511
:1013F000407402D25B084FEA3202B61A65EB03056D
:101400005B084FEA32024FF480104FF4002CB6EB29
:10141000020E75EB030E22BFB61A754640EA0C00A9
:101420005B084FEA3202B6EB020E75EB030E22BFE9
:10143000B61A754640EA5C005B084FEA3202B6EB2A
:10144000020E75EB030E22BFB61A754640EA9C00E9
:101450005B084FEA3202B6EB020E75EB030E22BFB9
:10146000B61A754640EADC0055EA060E18D04FEA77
:10147000051545EA16754FEA06164FEAC30343EA17
:1014800052734FEAC2025FEA1C1CC0D111F4801FE4
:101490000BD141EA00014FF000004FF0004CB6E7DD
:1014A00011F4801F04BF01430020B4F1FD0C88BF7C
:1014B000BCF5E06F3FF6AFAEB5EB030C04BFB6EB87
:1014C000020C5FEA500C50F1000041EB045170BD7A
:1014D0000EF0004E4EEA113114EB5C04C2BFD4EBA7
:1014E0000C0541EA045170BD41F480114FF0000E2B
:1014F000013C90E645EA060E8DE60CEA135594EAA7
:101500000C0F08BF95EA0C0F3FF43BAF94EA0C0FA9
:101510000AD150EA01347FF434AF95EA0C0F7FF41E
:1015200025AF104619462CE795EA0C0F06D152EA72
:1015300003353FF4FDAE1046194622E750EA410656
:1015400018BF52EA43067FF4C5AE50EA41047FF467
:101550000DAF52EA43057FF4EBAE12E74FF0FF3CCC
:1015600006E000BF4FF0010C02E000BF4FF0010C9D
:101570004DF804CD4FEA410C7FEA6C5C4FEA430C16
:1015800018BF7FEA6C5C1BD001B050EA410C0CBF65
:1015900052EA430C91EA030F02BF90EA020F0020C7
:1015A000704710F1000F91EA030F58BF994208BF2E
:1015B00090422CBFD8176FEAE37040F001007047EB
:1015C0004FEA410C7FEA6C5C02D150EA013C07D142
:1015D0004FEA430C7FEA6C5CD6D152EA033CD3D08D
:1015E0005DF8040B704700BF8446104662468C4687
:1015F0001946634600E000BF01B5FFF7B7FF0028BA
:1016000048BF10F1000F01BD4DF808EDFFF7F4FFE2
:101610000CBF012000205DF808FB00BF4DF808ED6D
:10162000FFF7EAFF34BF012000205DF808FB00BF90
:101630004DF808EDFFF7E0FF94BF012000205DF8B2
:1016400008FB00BF4DF808EDFFF7CEFF94BF012067
:1016500000205DF808FB00BF4DF808EDFFF7C4FF60
:1016600034BF012000205DF808FB00BF4A0011D202
:1016700012F5001211D20DD56FF47873B3EB6252EC
:101680000ED44FEAC12343F0004343EA505323FAF8
:1016900002F070474FF00000704750EA013002D16D
:1016A0004FF0FF3070474FF00000704738B50546E7
:1016B0000C462846214600220023FFF7AFFF28B939
:1016C00028462146BDE8384000F00AB8284604F113
:1016D000004100F005F8404261EB410138BD00BF18
:1016E000D0B50C4B002206460F46FFF725FDFFF74D
:1016F000BDFF0446FFF7A6FC074B0022FFF71CFDC9
:1017000002460B4630463946FFF75EFBFFF7AEFF59
:101710002146D0BD0000F03D0000F04100B585B08D
:10172000BDF818C04FF0FF0E8DF800E08DF801E015
:101730008DF8021009218DF8031003218DF8041093
:101740002A218DF805108DF80620120A8DF8072041
:101750008DF808301B0A8DF809308DF80AC04FEA61
:101760001C2C8DF80BC00223002206E003F11001AF
:10177000694411F8101C0A4401330B2BF6DDD243E7
:101780008DF80C2001230D22694602F0D2F905B034
:101790005DF804FB00B583B04FF0FF0C8DF800C07E
:1017A0008DF801C08DF8021004218DF8031002217C
:1017B0008DF804108DF805208DF806300B460022B8
:1017C00006E003F10801694411F8081C0A440133DA
:1017D000062BF6DDD2438DF8072001230822694647
:1017E00002F0A7F903B05DF804FB000030B589B042
:1017F000002403940494059406940794134BDA6C24
:1018000042F00102DA64DA6C02F001020192019AFC
:10181000DA6C42F00202DA64DB6C03F0020302933A
:10182000029B0B4D22464FF48071284600F0C6FC07
:101830004FF480730393012304930594069403A942
:10184000284600F0CDFB09B030BD00BF00100240BB
:101850000004004802681B4B9A4200D0704770B5E4
:1018600082B0194D284602F0E9FBFEF7E9FC064676
:101870001649FEF7F7FEFEF791FF04464FF480711C
:10188000134800F0A0FC3046FEF788FF114A82FBA7
:101890000032C317C3EBA2134FF47A7202FB13009A
:1018A000FEF7D8FD00F01CF90023009382B2E1B2EC
:1018B0000948FFF733FF04222946084802F0BAFA24
:1018C00002B070BD00440040D809002000007A44F6
:1018D00000040048D34D6210DC0900206C0A00208F
:1018E00072B6FEE708B51648164B0360164B436008
:1018F00000218160C16001610C2343618161C1618C
:101900000162416281620B460A4602F0E7FA70B951
:1019100000210B4802F047FB58B90021084802F0AB
:1019200067FB40B9064802F01FFB30B908BDFFF75E
:10193000D7FFFFF7D5FFFFF7D3FFFFF7D1FF00BFBA
:10194000DC0900200038014040420F0008B515486E
:10195000154B03604FF4E133436000238360C360A1
:1019600003610C2242618361C3610362436283624B
:1019700002F088F970B900210A4802F014FB58B946
:101980000021084802F034FB40B9064802F0ECFAA6
:1019900030B908BDFFF7A4FFFFF7A2FFFFF7A0FFD4
:1019A000FFF79EFF6C0A00200044004000B595B090
:1019B0003822002106A802F06FFB0020019002905F
:1019C00003900490059000F007FC022306934FF467
:1019D0008072099240220A920D930E9304220F9274
:1019E0005522109211931293139306A800F0A6FCAF
:1019F00080B90F23019303230293002303930493DD
:101A0000059304210DEB010000F050FF20B915B043
:101A10005DF804FBFFF764FFFFF762FF00B583B0DA
:101A200000F0C6F9FFF7C2FFFFF7E0FEFFF75AFF2D
:101A3000FFF78CFF012000F0DDF9244D0123372250
:101A400019462846FFF7A6FE04222149214802F044
:101A5000F1F9002400942346224601212846FFF78D
:101A60005DFE022000F0C6F90094234622460221C2
:101A70002846FFF753FE022000F0BCF9164800F09C
:101A80002FF80094234682B202212846FFF746FE33
:101A90004FF4FA6000F0AEF900942346224602218A
:101AA0002846FFF73BFE4FF4FA6000F0A3F90B481D
:101AB00000F016F80094234682B201212846FFF771
:101AC0002DFE022000F096F9FBE700BFDC090020A4
:101AD000D80900206C0A0020000034430000B842FE
:101AE00008B50449FEF7BEFD0349FEF707FDFEF702
:101AF00055FE08BD0000B44300F07F4582B00A4B9C
:101B00001A6E42F001021A661A6E02F00102009289
:101B1000009A9A6D42F080529A659B6D03F0805353
:101B20000193019B02B070470010024010B59AB0BB
:101B3000044600211591169117911891199144228C
:101B400004A802F0A9FA2368334A934204D0334A26
:101B500093422DD01AB010BD0123049304A800F0C5
:101B6000CBFF10BB2E4B1A6E42F480421A661A6EDF
:101B700002F480420092009ADA6C42F00102DA64C8
:101B8000DB6C03F001030193019B4FF4B0531593F9
:101B9000022316930023179318930723199315A96B
:101BA0004FF0904000F01CFAD4E7FFF799FED9E718
:101BB0000223049304A800F09FFF48BB184B9A6DC2
:101BC00042F400329A659A6D02F400320292029A4F
:101BD000DA6C42F00102DA64DB6C03F00103039378
:101BE000039B0C2315930223169300241794189437
:101BF0000723199315A94FF0904000F0F1F9224600
:101C00002146262000F01CF9262000F051F9A1E71A
:101C1000FFF766FED2E700BF0038014000440040F5
:101C200000100240FEE7FEE7FEE7FEE7FEE7704732
:101C30007047704708B500F0CBF808BD08B50248FA
:101C400001F016F908BD00BF6C0A002001207047A2
:101C500008B502F0F7F9162303604FF0FF3008BD16
:101C600008B54FF0FF31FFF7F3FFFEE770B50C4604
:101C70001646002506E0AFF30080214601F8010B6F
:101C800001350C46B542F6DB304670BD70B50C46EA
:101C90001646002504E014F8010BAFF3008001356F
:101CA000B542F8DB304670BD4FF0FF3070474FF45F
:101CB00000534B60002070470120704700207047A0
:101CC00010B503460C4A0D490D48006840B10C4858
:101CD00000680344521A934206D8094A136010BDA3
:101CE0000748084C0460F2E702F0ACF90C230360EB
:101CF0004FF0FF30F3E700BF008000200004000039
:101D0000FC0A0020500B0020704700000D4885465B
:101D10000D480E490E4A002302E0D458C450043343
:101D2000C4188C42F9D30B4A0B4C002301E013601A
:101D30000432A242FBD3FFF7E7FF02F089F9FFF775
:101D40006DFEFEE70080002000000020BC0900209E
:101D5000DC930008BC0900204C0B0020FEE70000CB
:101D6000104B1B680BB90120704710B504464FF4A7
:101D70007A70B0FBF3F30C4A1068B0FBF3F000F09C
:101D8000A5F868B90F2C01D901200AE000222146EC
:101D90004FF0FF3000F054F8044B1C60002000E0CE
:101DA000012010BD040000200000002008000020D9
:101DB00010B5032000F032F80020FFF7D1FF10B17A
:101DC0000124204610BD0446FFF798FEF9E7000005
:101DD000034A1368034909680B441360704700BF46
:101DE000000B002004000020014B1868704700BF62
:101DF000000B002038B50446FFF7F6FF0546B4F1A6
:101E0000FF3F02D0044B1B681C44FFF7EDFF401B53
:101E1000A042FAD338BD00BF04000020074AD368AF
:101E200023F4E0631B041B0C000200F4E060034396
:101E300043F0BF6343F40033D360704700ED00E02C
:101E400000B5194BDB68C3F30223C3F1070CBCF1E7
:101E5000040F28BF4FF0040C03F1040EBEF1060F6F
:101E600018D9033B4FF0FF3E0EFA0CFC21EA0C019F
:101E700099400EFA03F322EA0303194300280BDB0F
:101E80000901C9B200F1604000F5614080F800131B
:101E90005DF804FB0023E5E700F00F000901C9B27B
:101EA000024B1954F4E700BF00ED00E014ED00E030
:101EB000002807DB00F01F02400901239340024A7B
:101EC00042F82030704700BF00E100E00138B0F177
:101ED000807F0BD24FF0E0235861054AF02182F851
:101EE00023100020986107221A6170470120704773
:101EF00000ED00E0034690F82520D2B2022A09D076
:101F00000422C2630120012283F82520002283F8E5
:101F10002420704701680A6822F00E020A60816C72
:101F20000A6822F480720A6001680A6822F00102DD
:101F30000A60426C02F01F01006C01228A4042607C
:101F4000DA6C196D51605A6D42B1116821F48071DB
:101F500011609A6DD96D51600020D4E70020D2E75E
:101F600008B590F82530DBB2022B09D00423C363F7
:101F7000012380F82530002280F82420184608BD6F
:101F80000268136823F00E0313600268136823F0DD
:101F900001031360826C136823F480731360436C35
:101FA00003F01F02016C012393404B60C36C026D70
:101FB0005A60436D33B11A6822F480721A60836DDF
:101FC000C26D5A60012380F82530002380F8243048
:101FD000836B13B198470020D1E70020CFE70000C2
:101FE00070B582B0002365E085685E000324B440CC
:101FF00025EA0405CC68B4402C438460446824EA94
:102000000C0C4C68C4F300149C4044EA0C0444607B
:1020100061E0DD08083550F8256003F007044FEA59
:10202000840C0F2404FA0CF426EA040E0C6904FA5A
:102030000CF444EA0E0440F8254063E0052400E077
:10204000002404FA0EF42C430CF1020C574D45F811
:102050002C40574CA568D44325EA0206D1F804C0A9
:102060001CF4801F01D042EA0506514DAE60ED68B8
:1020700004EA0506D1F804C01CF4001F01D042EAAE
:1020800005064B4DEE606D6804EA0506D1F804C004
:102090001CF4003F01D042EA0506454D6E602D68F4
:1020A0002C404E6816F4803F01D042EA0504404AB5
:1020B000146001330A6832FA03F474D04FF0010C53
:1020C0000CFA03FC1CEA0202F3D04C6804F003048F
:1020D000013C012C88D94C6804F00304032C0CD07B
:1020E000C4685D004FF0030C0CFA05FC24EA0C0CEC
:1020F0008C68AC4044EA0C04C4604C6804F00304EF
:10210000022C86D004684FEA430E4FF0030C0CFA01
:102110000EFC24EA0C0C4C6804F0030404FA0EF4E0
:1021200044EA0C0404604C6814F4403FC1D0214CD4
:10213000256E45F001052566246E04F00104019426
:10214000019C4FEA930C0CF10205184C54F82550F1
:1021500003F003044FEA840E0F2404FA0EF425EA78
:102160000405B0F1904F3FF46BAF134CA04212D076
:1021700004F58064A04210D004F58064A0420ED023
:1021800004F58064A0420CD004F58064A0423FF4C2
:1021900055AF062455E7012453E7022451E70324F1
:1021A0004FE704244DE702B070BD00BF00000140BE
:1021B0000004014000100240000400480AB181619F
:1021C000704781627047436901EA030221EA030113
:1021D00041EA024181617047002836D13E4B1B68BD
:1021E00003F4C063B3F5806F08D03B4AD2F8803067
:1021F00023F48073C2F8803000207047364AD2F84A
:10220000803023F48073C2F88030136823F4C063F5
:1022100043F400731360314B1B68322202FB03F35B
:102220002F4AA2FB03239B0C013300E0013B2A4A07
:10223000526912F4806F01D0002BF7D1264B5B69F5
:1022400013F4806F44D100207047B0F5007F08D0B0
:10225000214A136823F4C06343F4806313600020B1
:1022600070471D4B1B6803F4C063B3F5806F08D043
:10227000194AD2F8803043F48073C2F880300020CD
:102280007047154AD2F8803043F48073C2F880302A
:10229000136823F4C06343F4007313600F4B1B688F
:1022A000322202FB03F30E4AA2FB03239B0C0133F1
:1022B00000E0013B084A526912F4806F01D0002B04
:1022C000F7D1054B5B6913F4806F03D10020704791
:1022D000032070470320704700700040000000207A
:1022E00083DE1B43124BDA6802F00302D868C0F3A6
:1022F0000310431C032A11D00E48B0FBF3F00C4B23
:10230000DB68C3F3062303FB00F0094BDB68C3F370
:10231000416301335B00B0FBF3F070470648B0FB4C
:10232000F3F0034BDB68C3F3062303FB00F0ECE799
:10233000001002400024F40000127A00002800F08F
:10234000548270B582B00446036813F0010F37D091
:10235000A44A936803F00C03D26802F003020C2B2A
:1023600023D0082B23D06368B3F5803F4ED0B3F55C
:10237000A02F51D09B4B1A6822F480321A601A6841
:1023800022F480221A606368002B52D0FFF72CFDE4
:102390000546944B1B6813F4003F11D1FFF724FD51
:1023A000401B6428F5D9032028E2032AD9D18D4B9C
:1023B0001B6813F4003F03D06368002B00F0178202
:1023C000236813F0020F5DD0864A936803F00C0374
:1023D000D26802F003020C2B3AD0042B3AD0E36807
:1023E000002B75D07F4A136843F480731360FFF7A6
:1023F000FBFC05467B4B1B6813F4806F5FD1FFF736
:10240000F3FC401B0228F5D90320F7E1754A136855
:1024100043F480331360B6E703F18043A3F53C3304
:102420001A6842F480221A601A6842F480321A60F4
:10243000A9E7FFF7D9FC05466A4B1B6813F4003F78
:10244000BED0FFF7D1FC401B6428F5D90320D5E1AD
:10245000022AC2D1634B1B6813F4806F03D0E36878
:10246000002B00F0C6815F4A536823F0FE432169C8
:1024700043EA016353605C4B1868FFF771FC002866
:1024800040F0B981236813F0080F4CD063699BB307
:10249000544AD2F8943043F00103C2F89430FFF765
:1024A000A3FC05464F4BD3F8943013F0020F3AD1FA
:1024B000FFF79AFC401B0228F4D903209EE1494A09
:1024C000536823F0FE43216943EA01635360D9E76F
:1024D000444A136823F480731360FFF785FC0546B4
:1024E000404B1B6813F4806FCCD0FFF77DFC401B82
:1024F0000228F5D9032081E13A4AD2F8943023F03A
:102500000103C2F89430FFF76FFC0546354BD3F852
:10251000943013F0020F06D0FFF766FC401B022830
:10252000F4D903206AE1236813F0040F00F08180DE
:102530002C4B9B6D13F0805F36D12A4B9A6D42F085
:1025400080529A659B6D03F080530193019B012596
:10255000264B1B6813F4807F28D0A368012B39D049
:10256000052B45D01F4BD3F8902022F00102C3F871
:102570009020D3F8902022F00402C3F89020A368A2
:10258000002B43D0FFF730FC0646164BD3F89030B3
:1025900013F0020F4CD1FFF727FC801B41F2883368
:1025A0009842F2D9032029E10025D1E70F4A1368A8
:1025B00043F480731360FFF717FC06460B4B1B6850
:1025C00013F4807FC9D1FFF70FFC801B0228F5D9D7
:1025D000032013E1034AD2F8903043F00103C2F81C
:1025E0009030CCE70010024008000020007000404E
:1025F0008A4BD3F8902042F00402C3F89020D3F81D
:10260000902042F00102C3F89020B8E7FFF7ECFBFE
:102610000646824BD3F8903013F0020F08D0FFF734
:10262000E3FB801B41F288339842F2D90320E5E0B6
:10263000E5B9236813F0200F35D0A369E3B1774AD9
:10264000D2F8983043F00103C2F89830FFF7CCFB82
:102650000546724BD3F8983013F0020F23D1FFF7E1
:10266000C3FB401B0228F4D90320C7E06B4A936DDB
:1026700023F080539365DCE7684AD2F8983023F062
:102680000103C2F89830FFF7AFFB0546634BD3F860
:10269000983013F0020F06D0FFF7A6FB401B02286C
:1026A000F4D90320AAE0E369002B00F0A6805B4A7E
:1026B000926802F00C020C2A69D0022B1DD0574BF5
:1026C0001A6822F080721A60DA6822F00302DA6077
:1026D000DA6822F0887222F48032DA60FFF784FB35
:1026E00004464E4B1B6813F0007F4ED0FFF77CFB77
:1026F000001B0228F5D9032080E0484A136823F024
:1027000080731360FFF770FB0546444B1B6813F0A2
:10271000007F06D0FFF768FB401B0228F5D9032095
:102720006CE03E4AD3683E491940236A606A01382A
:1027300043EA0013A06A43EA0023206B40080138F3
:1027400043EA4053606B4008013843EA4063E06A63
:1027500043EAC0630B43D360136843F08073136094
:10276000D36843F08073D360FFF73EFB04462B4BE6
:102770001B6813F0007F06D1FFF736FB001B022811
:10278000F5D903203AE0002038E0002036E0012BA4
:1027900036D0224BDB6803F00301226A914231D12B
:1027A00003F0F002616A0139B2EB011F2CD103F48E
:1027B000FE42A16AB2EB012F28D103F07842E16A10
:1027C000B2EBC16F24D103F4C001226B5208013A6D
:1027D000B1EB425F1ED103F0C063626B5208013A55
:1027E000B3EB426F18D1002008E0012070470120B0
:1027F00004E0012002E0012000E0002002B070BDF2
:102800000120FBE70120F9E70120F7E70120F5E7C8
:102810000120F3E70120F1E70120EFE7001002407B
:102820000C809F011E4B9B6803F00C03042B33D0DC
:102830001B4B9B6803F00C03082B2FD0184B9B6895
:1028400003F00C030C2B01D000207047144BDA6806
:1028500002F00302D868C0F30310431C032A11D00E
:102860001048B0FBF3F00E4BDB68C3F3062303FB09
:1028700000F00B4BDB68C3F3416301335B00B0FB3B
:10288000F3F070470848B0FBF3F0054BDB68C3F387
:10289000062303FB00F0ECE702487047024870474C
:1028A000001002400024F40000127A00002800F01A
:1028B000E680F8B50C460546744B1B6803F00F0321
:1028C0008B420BD2714A136823F00F030B43136042
:1028D000136803F00F038B4240F0D3802E6816F08C
:1028E00001065FD06B68032B2FD0022B4DD0684BB5
:1028F0001B6813F4806F00F0C680FFF793FF654BF1
:1029000098424DD9624A936823F0F00343F0800364
:10291000936080265E4A936823F0030369680B4343
:102920009360FFF761FA0746594B9B6803F00C036D
:102930006A68B3EB820F35D0FFF756FAC01B41F23D
:1029400088339842F0D9032078E0514B1B6813F08C
:10295000007F01D1012071E0FFF7C4FC4D4B98428C
:102960001AD94B4B9B6813F0F00F05D02E6816F068
:102970000206CFD0AB688BB9454A936823F0F003C9
:1029800043F0800393608026C4E7414B1B6813F437
:10299000003FB2D1012051E00026BBE70026B9E795
:1029A0000026B7E72B6813F0020F48D013F0040F8E
:1029B00004D0374A936843F4E06393602B6813F0C4
:1029C000080F06D0324A936823F47C5343F4E06343
:1029D00093602F4A936823F0F003A9680B43936038
:1029E0002A4B1B6803F00F03A34230D82B6813F067
:1029F000040F06D0264A936823F4E063E9680B438A
:102A000093602B6813F0080F07D0214A936823F4D2
:102A10006053296943EAC1039360FFF703FF1C4B2E
:102A20009B68C3F303131C4AD35C03F01F03D84015
:102A30001A4B18601A4B1868FFF792F9F8BD802EF0
:102A4000CED1134A936823F0F0039360C8E70F4A8E
:102A5000136823F00F0323431360FFF7C5F90646FD
:102A60000A4B1B6803F00F03A342BFD0FFF7BCF96A
:102A7000801B41F288339842F2D90320DEE701201F
:102A800070470120DAE70120D8E700BF00200240AC
:102A90000010024000B4C404588E0008000000205A
:102AA00008000020014B1868704700BF000000209C
:102AB00008B5FFF7F7FF054B9B68C3F30223044AF1
:102AC000D35C03F01F03D84008BD00BF00100240D4
:102AD000688E000808B5FFF7E5FF054B9B68C3F358
:102AE000C223044AD35C03F01F03D84008BD00BFD3
:102AF00000100240688E0008F0B583B004460368F9
:102B000013F4002F69D0AE4B9B6D13F0805F1ED184
:102B1000AB4B9A6D42F080529A659B6D03F08053E7
:102B20000193019B0126A74A136843F48073136045
:102B3000FFF75AF90546A34B1B6813F4807F08D1B1
:102B4000FFF752F9401B0228F5D9032502E00026C1
:102B5000E9E7002545BB9A4BD3F8903013F4407356
:102B600015D0226C9A4212D0954AD2F8903023F4B4
:102B70004073D2F8901041F48031C2F89010D2F82E
:102B8000901021F48031C2F89010C2F8903013F008
:102B9000010F10D145B98A4AD2F8903023F440731E
:102BA000216C0B43C2F89030C6B1854A936D23F077
:102BB0008053936512E0FFF717F90746804BD3F86F
:102BC000903013F0020FE5D1FFF70EF9C01B41F270
:102BD00088339842F2D90325DCE70025236813F0F7
:102BE000010F08D0764AD2F8883023F003036168D9
:102BF0000B43C2F88830236813F0020F08D0704AE4
:102C0000D2F8883023F00C03A1680B43C2F8883057
:102C1000236813F0040F08D0694AD2F8883023F0F3
:102C20003003E1680B43C2F88830236813F0080FC3
:102C300008D0634AD2F8883023F0C00321690B43DF
:102C4000C2F88830236813F0200F08D05C4AD2F80D
:102C5000883023F4406361690B43C2F888302368ED
:102C600013F0400F08D0564AD2F8883023F440536E
:102C7000A1690B43C2F88830236813F0800F08D095
:102C80004F4AD2F8883023F44043E1690B43C2F83D
:102C90008830236813F4807F08D0494AD2F88830FE
:102CA00023F44033216A0B43C2F88830236813F4BD
:102CB000007F08D0424AD2F8883023F44023616A6A
:102CC0000B43C2F88830236813F4806F0CD03C4A61
:102CD000D2F8883023F44013A16A0B43C2F888303D
:102CE000A36AB3F5801F57D0236813F4006F0CD08C
:102CF000334AD2F8883023F44003E16A0B43C2F828
:102D00008830E36AB3F5800F4BD0236813F4805FFB
:102D10000CD02B4AD2F8883023F04073216B0B4340
:102D2000C2F88830236BB3F1807F3FD0236813F45F
:102D3000005F0CD0224AD2F8883023F04063616BE8
:102D40000B43C2F88830636BB3F1006F33D0236854
:102D500013F4804F0CD01A4AD2F8883023F0406325
:102D6000A16B0B43C2F88830A36BB3F1006F2BD07B
:102D7000236813F4004F0CD0114AD2F8883023F0A6
:102D80004053E16B0B43C2F88830E36BB3F1805FD3
:102D90001FD0284603B0F0BDD36843F48013D3603E
:102DA000A2E7D36843F48013D360AEE7D36843F45B
:102DB0008013D360BAE7D36843F48013D360C6E7C7
:102DC0000010024000700040D36843F48013D360C9
:102DD000CEE7D36843F48033D360DAE7026852E881
:102DE000003F23F4907342E800310029F6D10268D5
:102DF00002F1080353E8003F23F0805323F001035E
:102E0000083242E800310029F1D1C36E012B06D00F
:102E10002023C0F888300023C36603677047026828
:102E200052E8003F23F0100342E800310029F6D1B8
:102E3000EEE7704708B5026852E8003F23F0400310
:102E400042E800310029F6D12023C0F88430002365
:102E50004367FFF7EEFF08BD704708B5806A00239F
:102E6000A0F85E30A0F85630FFF7F6FF08BD7047B7
:102E700070B504460168CB6908688D6840F60F029A
:102E80001A4008D113F0200F05D010F0200F34D1D4
:102E900015F0805F31D12AB1954A2A4033D1954E41
:102EA000304230D1E26E012A00F0C38013F4801F5B
:102EB00003D015F4800F40F05B8113F0800F07D032
:102EC00010F0800F40F05B8115F4000F40F0578147
:102ED00013F0400F03D010F0400F40F0578113F46F
:102EE000000F03D010F0804F40F0548113F0807F2A
:102EF00002D00028C0F2528170BD236F002BFBD09E
:102F000020469847F8E713F0010F09D010F4807FAE
:102F100006D001260E62D4F88C103143C4F88C1010
:102F200013F0020F0BD015F0010F08D02168022614
:102F30000E62D4F88C1041F00401C4F88C1013F028
:102F4000040F0BD015F0010F08D0216804260E6283
:102F5000D4F88C1041F00201C4F88C1013F0080F63
:102F60000BD010F0200F00D13AB122680821116275
:102F7000D4F88C200A43C4F88C2013F4006F0CD0D2
:102F800010F0806F09D022684FF400611162D4F80C
:102F90008C2042F02002C4F88C20D4F88C20002A27
:102FA000AAD013F0200F09D010F0200F02D115F095
:102FB000805F03D0236F0BB120469847D4F88C2054
:102FC00023689B6813F0400F02D112F0280F29D01C
:102FD0002046FFF703FF23689B6813F0400F1DD0C6
:102FE000226802F1080353E8003F23F0400308324F
:102FF00042E800310029F3D1E36F5BB13E4A9A63A6
:10300000E06FFEF7ADFF00283FF476AFE06F836B13
:10301000984771E72046FFF71FFF6DE72046FFF74F
:103020001BFF69E72046FFF717FF0023C4F88C3029
:1030300062E713F0100F3FF439AF10F0100F3FF4B8
:1030400035AF10230B6223689B6813F0400F55D0F7
:10305000E26F13685B689BB2002B3FF44DAFB4F88E
:103060005C1099427FF648AFA4F85E3013681B6885
:1030700013F0200F31D1226852E8003F23F480730F
:1030800042E800310029F6D1226802F1080353E832
:10309000003F23F00103083242E800310029F3D158
:1030A000226802F1080353E8003F23F0400308328E
:1030B00042E800310029F3D12023C4F888300023EE
:1030C000E366226852E8003F23F0100342E8003133
:1030D0000029F6D1E06FFEF70DFFB4F85C10B4F8EC
:1030E0005E309BB2C91A89B22046FFF7C0FE03E7E3
:1030F00001000010200100045B2E0008B4F85C10F1
:10310000B4F85E309BB2C91A89B2B4F85E309BB293
:10311000002B3FF4F1AE00293FF4EEAE226852E8F6
:10312000003F23F4907342E800300028F6D1226873
:1031300002F1080353E8003F23F0805323F001031A
:10314000083242E800300028F1D12023C4F888304A
:103150000023E3662367226852E8003F23F0100350
:1031600042E800300028F6D12046FFF780FEC3E693
:103170004FF480130B62204600F0F3FEBCE6636F51
:10318000002B3FF4B9AE20469847B5E62046FFF73E
:1031900051FEB1E6204600F0E6FEADE6204600F026
:1031A000E1FEA9E608B5B0F86030D0F88820222A00
:1031B00005D00268936943F00803936108BD026873
:1031C000516ADBB2826D0B401370836D01338365EE
:1031D000B0F85E309BB2013B9BB2A0F85E30B0F815
:1031E0005E309BB2002BE9D1026852E8003F23F425
:1031F000907342E800310029F6D1026802F1080319
:1032000053E8003F23F00103083242E8003100296F
:10321000F3D12023C0F8883000230367C36E012B4D
:1032200016D10023C366026852E8003F23F0100362
:1032300042E800310029F6D10368DA6912F0100F74
:1032400001D010221A62B0F85C10FFF710FEB5E74B
:10325000FEF700FBB2E708B5B0F86020D0F8883080
:10326000222B05D00268936943F00803936108BDDF
:1032700003685B6A816D13400B80836D0233836545
:10328000B0F85E309BB2013B9BB2A0F85E30B0F864
:103290005E309BB2002BEAD1026852E8003F23F473
:1032A000907342E800310029F6D1026802F1080368
:1032B00053E8003F23F00103083242E800310029BF
:1032C000F3D12023C0F8883000230367C36E012B9D
:1032D00016D10023C366026852E8003F23F01003B2
:1032E00042E800310029F6D10368DA6912F0100FC4
:1032F00001D010221A62B0F85C10FFF7B8FDB6E7F3
:10330000FEF7A8FAB3E700002DE9F843B0F86060D3
:103310000368DD69D3F80090D3F80880D0F88820DE
:10332000222A05D09A6942F008029A61BDE8F88322
:103330000446B0F8687008E0D4F88C30002B4CD10B
:10334000B4F85E309BB2002B4ED0002F00F0878087
:1033500015F0200F00F083802368596AF3B2A26D44
:103360000B401370A36D0133A365B4F85E309BB2BC
:10337000013B9BB2A4F85E302368DD6915F0070FAE
:10338000DED015F0010F09D019F4807F06D001229C
:103390001A62D4F88C301343C4F88C3015F0020F45
:1033A0000BD018F0010F08D0236802221A62D4F85B
:1033B0008C3043F00403C4F88C3015F0040FBBD0FC
:1033C00018F0010FB8D0236804221A62D4F88C30A8
:1033D00043F00203C4F88C30AEE72046FFF73CFD13
:1033E0000023C4F88C30ABE7226852E8003F23F496
:1033F000807342E800310029F6D1226802F1080307
:1034000053E8003F23F0805323F00103083242E8E1
:1034100000310029F1D12023C4F88830002323672C
:10342000E36E012B03D02046FEF714FA8DE700234C
:10343000E366226852E8003F23F0100342E80031BF
:103440000029F6D12368DA6912F0100F01D010229A
:103450001A62B4F85C102046FFF709FD75E7B4F86E
:103460005E309BB2002B3FF461AFB4F868209A4203
:103470007FF65CAF226802F1080353E8003F23F0B7
:103480008053083242E800310029F3D1054B23670D
:10349000226852E8003F43F0200342E8003100294F
:1034A000F6D143E7A53100082DE9F843B0F8606094
:1034B0000368DD69D3F80090D3F80880D0F888203D
:1034C000222A05D09A6942F008029A61BDE8F88381
:1034D0000446B0F8687008E0D4F88C30002B4BD16B
:1034E000B4F85E309BB2002B4DD0002F00F08680E8
:1034F00015F0200F00F0828023685B6AA26D3340D4
:103500001380A36D0233A365B4F85E309BB2013B18
:103510009BB2A4F85E302368DD6915F0070FDFD099
:1035200015F0010F09D019F4807F06D001221A622C
:10353000D4F88C301343C4F88C3015F0020F0BD044
:1035400018F0010F08D0236802221A62D4F88C30D8
:1035500043F00403C4F88C3015F0040FBCD018F00D
:10356000010FB9D0236804221A62D4F88C3043F0DA
:103570000203C4F88C30AFE72046FFF76DFC002350
:10358000C4F88C30ACE7226852E8003F23F4807323
:1035900042E800310029F6D1226802F1080353E81D
:1035A000003F23F0805323F00103083242E800314A
:1035B0000029F1D12023C4F8883000232367E36E6B
:1035C000012B03D02046FEF745F98EE70023E36682
:1035D000226852E8003F23F0100342E8003100293E
:1035E000F6D12368DA6912F0100F01D010221A62A6
:1035F000B4F85C102046FFF73AFC76E7B4F85E308A
:103600009BB2002B3FF462AFB4F868209A427FF679
:103610005DAF226802F1080353E8003F23F08053B6
:10362000083242E800310029F3D1064B23672268B3
:1036300052E8003F43F0200342E800310029F6D170
:1036400044E700BF5732000870B50446016883683C
:103650000269134342691343C269134308688B4AE2
:10366000024013430B602268536823F44053E1681F
:103670000B435360A1692268854B9A4201D0236AAB
:103680001943936823F06E4323F430630B43936034
:103690002268D36A23F00F03616A0B43D362236865
:1036A0007C4A934223D07C4A934234D07B4A934253
:1036B0004AD07B4A934259D0754A934268D010222F
:1036C00073498B4200F09580E069B0F5004F00F03F
:1036D000D280082A00F24F81DFE812F01201340193
:1036E00010014D0137014D014D014D013A0102F527
:1036F0005842D2F8882002F00302032A09D8DFE8F2
:1037000002F002045C060122DAE70422D8E708226C
:10371000D6E71022D4E702F5E632D2F8882002F08C
:103720000C020C2A0ED8DFE802F0070D0D0D090D72
:103730000D0D4A0D0D0D0B000022C1E70422BFE75D
:103740000822BDE71022BBE702F5E432D2F8882058
:1037500002F03002202A34D004D8A2B3102A34D187
:103760000422ADE7302A32D10822A9E702F5E2327D
:10377000D2F8882002F0C002802A2AD004D852B39E
:10378000402A2AD104229BE7C02A28D1082297E7A1
:1037900002F5C832D2F8882002F44062B2F5006F18
:1037A0001FD005D8FAB1B2F5806F1ED1042287E789
:1037B000B2F5406F1BD1082282E7022280E7022285
:1037C0007EE702227CE700227AE7102278E71022C7
:1037D00076E7022274E7002272E7102270E71022D7
:1037E0006EE702226CE700226AE7102268E71022E7
:1037F00066E7082A00F2AF80DFE802F008AD3BADD3
:1038000038ADADAD05004FF4004004E0FFF750F9CE
:10381000002800F0A280626A224B33F81220B0FB2D
:10382000F2F3656805EB4501994200F29880B3EB2D
:10383000053F00F29680002633463146FCF7D4FF60
:10384000090241EA106100026B08C0182A4633469B
:1038500041F10001FCF7C8FFA0F54072124B9A42FB
:1038600000F281802368D860304662E0FEF7DAFF1C
:10387000CEE70E48CFE7082A77D8DFE802F01939FB
:1038800005763C7676761D00084815E0F369FFCF93
:1038900000800040003801400044004000480040E3
:1038A000004C0040708E0008FFFC0F000024F40064
:1038B000FFF7FEF800285AD0626A324B33F8123014
:1038C000B0FBF3F06268530803EB4000B0FBF2F08A
:1038D000A0F110024FF6EF739A424AD883B223F058
:1038E0000F03C0F3420018432368D860002020E093
:1038F000FFF7F0F8DEE7FEF795FFDBE7224803E08D
:10390000FFF7D6F8002838D0626A1E4B33F8123021
:10391000B0FBF3F0636800EB5300B0FBF3F0A0F1F1
:1039200010024FF6EF739A4229D8236880B2D8600C
:1039300000200123A4F86A30A4F86830002323672C
:10394000636770BDFFF7C6F8DCE7FEF76BFFD9E7EA
:103950004FF40040D8E70120EBE70020E9E7012021
:10396000E7E70120E5E70120E3E70120E1E70020A8
:10397000DFE70120DDE70120DBE70020D9E70120B8
:10398000D7E700BF708E00080024F400836A13F0AC
:10399000010F06D00268536823F40033C16A0B4359
:1039A0005360836A13F0020F06D00268536823F451
:1039B0008033016B0B435360836A13F0040F06D00E
:1039C0000268536823F48023416B0B435360836A7E
:1039D00013F0080F06D00268536823F40043816B8C
:1039E0000B435360836A13F0100F06D0026893688C
:1039F00023F48053C16B0B439360836A13F0200F51
:103A000006D00268936823F40053016C0B43936063
:103A1000836A13F0400F0AD00268536823F48013BE
:103A2000416C0B435360436CB3F5801F0BD0836A2A
:103A300013F0800F06D00268536823F40023C16C92
:103A40000B43536070470268536823F4C003816CD2
:103A50000B435360EBE72DE9F84305460F46164646
:103A60009946DDF820802C68E46937EA04030CBF2E
:103A70004FF0010C4FF0000CB44557D1B8F1FF3FA7
:103A8000F1D0FEF7B1F9A0EB090040452FD8B8F10D
:103A9000000F2CD02B681A6812F0040FE3D0DA69FB
:103AA00012F4006FDFD04FF400621A622A6852E805
:103AB000003F23F4D07342E800310029F6D12A6890
:103AC00002F1080353E8003F23F00103083242E803
:103AD00000310029F3D12023C5F88430C5F888309F
:103AE000C5F88C30002385F8803003201FE02A6859
:103AF00052E8003F23F4D07342E800310029F6D1A8
:103B00002A6802F1080353E8003F23F0010308325A
:103B100042E800310029F3D12023C5F88430C5F8EC
:103B20008830002385F88030032000E00020BDE8C5
:103B3000F8832DE9F04182B01E46D0F88430202B66
:103B400058D104460D469046002957D0002A57D038
:103B500090F88030012B55D0012380F8803000236D
:103B6000C0F88C302123C0F88430FEF73DF90746B9
:103B7000A4F85480A4F85680A368B3F5805F05D0FC
:103B80004FF00008002384F8803014E0236913B15B
:103B90004FF00008F6E7A8460025F3E738F8023BA7
:103BA0002268C3F308039362B4F8562092B2013A34
:103BB00092B2A4F85620B4F856309BB273B1009676
:103BC0003B46002280212046FFF745FFE0B9002D4B
:103BD000E4D015F8012B23689A62E5E700963B468E
:103BE000002240212046FFF736FF78B92023C4F891
:103BF000843000E0022002B0BDE8F0810120FAE745
:103C00000120F8E70220F6E70320F4E70320F2E7BB
:103C100030B583B004460023C0F88C30FEF7E4F8DA
:103C200005462268126812F0080F0FD123681B683E
:103C300013F0040F18D12023C4F88430C4F888305E
:103C40000020E06684F8800003B030BD6FF07E4352
:103C50000093034600224FF400112046FFF7FBFEBD
:103C60000028E3D00320EFE76FF07E4300932B465C
:103C700000224FF480012046FFF7EDFE0028DAD045
:103C80000320E1E778B310B50446D0F884300BB3D5
:103C90002423C4F884302268136823F001031360DE
:103CA0002046FFF7D1FC012813D0A36ABBB92268D4
:103CB000536823F4904353602268936823F02A03E7
:103CC00093602268136843F0010313602046FFF7F6
:103CD0009FFF10BD80F88030FDF728FFD8E7204611
:103CE000FFF754FEE3E701207047000010B4816540
:103CF000A0F85C20A0F85E20002303678368B3F57A
:103D0000805F06D0A3B9036973B9FF23A0F86030C0
:103D100014E0036923B940F2FF13A0F860300DE00E
:103D2000FF23A0F8603009E07F23A0F8603005E0B1
:103D3000B3F1805F30D00023A0F860300023C0F8DA
:103D40008C302223C0F88830016801F1080353E861
:103D5000003F43F00103083141E80034002CF3D167
:103D6000436EB3F1005F21D08368B3F5805F48D024
:103D70002C4B0367002380F880300369002B46D06A
:103D8000026852E8003F43F4907342E80031002992
:103D9000F6D1002010BC704703691BB97F23A0F83F
:103DA0006030CBE73F23A0F86030C7E7B0F8683059
:103DB0009342D9D88368B3F5805F1CD01A4B036750
:103DC000002380F88030036943B1026852E8003F65
:103DD00043F4807342E800310029F6D1026802F111
:103DE000080353E8003F43F08053083242E80031B3
:103DF0000029F3D1CDE70369002BDFD10B4B03671B
:103E0000DEE70369002BB3D1094B0367B2E7026811
:103E100052E8003F43F0200342E800310029F6D188
:103E2000B7E700BFA531000809330008A93400082E
:103E30005732000838B5D0F88830202B1ED1F9B1A0
:103E400002B390F88030012B1ED0012380F880301F
:103E50000023C36603680D4CA3420CD05B6813F4C7
:103E6000000F08D0046854E8003F43F0806344E842
:103E70000035002DF6D1FFF739FF00E0022038BDF4
:103E80000120FCE70120FAE70220F8E7008000406B
:103E9000436E2BB90123A0F86A30A0F86830704750
:103EA00030B403689A68C2F342629968490F094DB9
:103EB0006B5CDB00084C615C93FBF1F3A0F86A30AB
:103EC000AB5CDB00A25C93FBF2F3A0F8683030BC83
:103ED000704700BF908E0008888E000800283ED0F2
:103EE000F8B50F4616461D460446D0F884306BB32D
:103EF0002423C4F884302268136823F0010313607C
:103F00002046FFF7A1FB01281FD0A36A1BBB226834
:103F1000936843F4804393602268936823F40043DA
:103F20003B4393602D0445EA465523681A6822F006
:103F30007F7222F440322A431A602268136843F0E9
:103F4000010313602046FFF763FEF8BD80F8803060
:103F5000FDF7ECFDCCE72046FFF718FDD7E7012081
:103F6000704770477047704790F88030012B18D029
:103F7000012380F880302423C0F8843003681A6855
:103F8000196821F00101196022F0005200234366F4
:103F900001680A602022C0F8842080F8803018462A
:103FA00070470220704738B590F88030012B1DD043
:103FB0000446012380F880302423C0F8843003684D
:103FC0001D681A6822F001021A600268936823F0E3
:103FD000604319439160FFF75BFF23681D60202356
:103FE000C4F88430002084F8800038BD0220FCE74B
:103FF00038B590F88030012B1DD00446012380F89D
:1040000080302423C0F8843003681D681A6822F0C9
:1040100001021A600268936823F06063194391609B
:10402000FFF736FF23681D602023C4F8843000208A
:1040300084F8800038BD0220FCE70000002101F078
:1040400017B800BF014B1868704700BF0C00002074
:1040500070B50D4E0D4D761BB61006D0002455F8E8
:10406000043B01349847A642F9D1094E094D761B0D
:1040700004F0E4FEB61006D0002455F8043B0134E9
:104080009847A642F9D170BDD0930008D09300089C
:10409000D8930008D0930008830730B548D0541E49
:1040A000002A3FD0CAB2034601E0013C3AD303F8EC
:1040B000012B9D07F9D1032C2DD9CDB245EA052559
:1040C0000F2C45EA054536D9A4F1100222F00F0C59
:1040D00003F1200EE6444FEA121C03F1100242E9FC
:1040E000045542E9025510327245F8D10CF1010233
:1040F00014F00C0F03EB021204F00F0C13D0ACF110
:10410000040323F003030433134442F8045B934293
:10411000FBD10CF003042CB1CAB21C4403F8012BF0
:104120009C42FBD130BD64461346002CF4D1F9E724
:1041300003461446BFE71A46A446E0E70000000025
:104140002DE9F04F1C46984B1B68A1B00025814615
:104150001846884608921C950493FCF771FD0021CF
:1041600083460020CDE90601CDF86C804246174613
:1041700012F8013B2D2B2FD8DFE813F0A1002E0001
:104180002E002E002E002E002E002E002E00AF003E
:10419000AF00AF00AF00AF002E002E002E002E00AB
:1041A0002E002E002E002E002E002E002E002E009F
:1041B0002E002E002E002E002E002E00AF002E000E
:1041C0002E002E002E002E002E002E002E002E007F
:1041D0002E0006042E00FC0300220A92302B7ED013
:1041E000002209922F2B1C4640F233854FF0000A23
:1041F00038465646554612E00130082D1B90C8BF80
:104200000AEB8A0A0478C6BF03EB4A03A3F1300A1B
:10421000A2F130062F2C05F10105234670DD06EBD7
:104220008602392C03EB4202E6DD04995A4602F07D
:10423000B7F80346002835D11B9A11465A441B9201
:1042400011F80B40002D40F0AC85302C40F0648517
:10425000C2F10101531801321B921478302CF9D0AD
:10426000A4F13102082A00F23883A4F1300E1B9C1D
:1042700003F1010B002301252746049306EB860674
:104280000EEB46060023621C1B926478A4F13001F9
:10429000092900F2ED8201338E46002940F0B884EE
:1042A0001B9CF0E70023652C04959B469E4601D09D
:1042B000452C32D1002D7CD1099A1A4378D1089B24
:1042C00013B1089BC3F800804FF0000BCDF810B07D
:1042D0000499584621B0BDE8F08F1B9247E77B78E0
:1042E00003F0DF03582B00F0748401371B973B78F1
:1042F000302BFAD0002B00F0CC800122099271E71C
:1043000004995A4602F04CF80346002800F0D68083
:1043100004954FF0000B5B46DE4600220B92002D09
:1043200000F09380049A1346002A08BF2B463046BB
:104330000493FCF787FE0B460246CDE906230B9B50
:10434000102DA3EB0B032C46A8BF1024092D0E93B0
:1043500013DD164B03EBC40353E91223FCF7ECFE09
:10436000CDE906015046FCF76DFE02460B46DDE93D
:104370000601FCF72BFDCDE906010F2D00F3A78008
:104380000E9B002B00F018840E9B40F39283162B9B
:1043900040F3F9840E9AC5F12503934280F20C850F
:1043A0000E9B2C1B1C4498E0A09000086091000814
:1043B0000025DDF86C8008F101021B9298F801409D
:1043C0002B2C00F087822D2C00F0218200220E92EF
:1043D000A4F13002092A00F21582302C05D11B9A73
:1043E00001321B921478302CFAD0A4F13102082A41
:1043F00093D81B990B914A1C1B92A4F130004C7866
:104400002F2C09DC00F034BC01321B929CF80140D7
:104410002F2CA1F1300006DD00EB8001392C9446F1
:1044200004EB4101F0DD0B99521A082A40F3208475
:1044300044F61F620B920E9A002A3FF470AF0B9A5B
:1044400052420B92002D7FF46DAF099A134320D195
:10445000BEF1000F7FF433AF692C00F03B8400F312
:104460004183492C00F036844E2C7FF428AFAC49B0
:104470001BA801F061F900283FF421AF1B9B1B78BA
:10448000282B00F06D85A74801F084FF8346049136
:1044900003E04FF0000BCDF810B0089A0AB11B9B57
:1044A00013600A9B002B3FF413AF049901F1004302
:1044B00004930499584621B0BDE8F08F1B9A0495E7
:1044C00002EB0B011B9112F80B409B46DEE60E9BA4
:1044D0002C1B1C44002C40F30A8314F00F000AD05C
:1044E000914901EBC001DDE90623D1E90001FCF7A8
:1044F00023FECDE9060134F00F0340F08B82002348
:104500000993049A00962B463946484601F0A8FACA
:104510001390002800F055830B9BABEB03000E9B20
:10452000002BB4BF024600220F9223EAE37300225D
:10453000934612939046139C4846616801F010FA26
:104540000746002800F0418122690232920004F1FE
:104550000C010C30FCF7CAFADDE9060104910B46A8
:104560001EA901911DA90B9002460091484601F039
:1045700023FE1C90002800F018810121484601F01C
:1045800017FB8046002800F020811D9B002BC0F205
:104590000F810F9A129D9E18099A1E9C9B1A234404
:1045A000624A013B9342C4F1360480F2AE80D21AD3
:1045B0001F2AA4EB020400F31D814FF0010A00231F
:1045C0000AFA02FA0C93099B25443444A6421D447E
:1045D0003346A8BF2346AB42A8BF2B46002B02DDC3
:1045E000E41AED1AF61A0F9B002B00F3BE80002C84
:1045F00000F3D2800E9B002B00F3DE80002D00F331
:10460000EF80002E08DD41463246484601F00CFCA2
:104610008046002800F0D9801C993A46484601F0AF
:104620009BFC8346002800F0D0800026C368C6604B
:104630004146109301F070FCB042C0F2638400F078
:10464000D2834146584601F019FE00224FF08043C4
:1046500004460D46FCF7ECFF00286FD0109B002BA2
:1046600000F0E180079B1193314B314C0022CDE9E2
:104670000C2335462F4E119A2F4B02EA060A9A4513
:1046800000F0FC80099B93B1BAF1D46F0FD822A33C
:10469000D3E9002328462146FCF7CAFF002840F052
:1046A00087810D9B03F1D663A3EB0A030D93049E50
:1046B0000B98DDE90C233146CDE9042301F0F2FC2F
:1046C00002460B46DDE90401FCF736FD33460B9A42
:1046D000FCF77CFBCDE906010E46099B23B9154B7F
:1046E00033409A4500F002811C99484601F05EF97A
:1046F0003946484601F05AF94146484601F056F914
:104700005946484601F052F915E700230C934FF043
:10471000010A58E7AFF300800000C0FFFFFFDF4150
:10472000A88E0008409200086091000802FCFFFF7C
:104730000000F03F0000F07F0000E07FAE4B20461D
:1047400029460022FCF7F8FC109B024605460C4661
:10475000002B64D101F1004314901593079B119332
:10476000DDE91423CDE90C2384E741461A46484687
:1047700001F0FAFA804640B301461C9A484601F01F
:1047800045FA10B310901C99484601F00FF9109BA0
:104790001C93002C7FF72EAF1C992246484601F04F
:1047A00043FB1C9000287FF425AFBA465E460FE01D
:1047B000129A0F9ED51AEFE63946129A484601F032
:1047C000D3FA074600287FF419AFBA465E461C9814
:1047D0002223C9F80030894B04934FF0000BB4E05A
:1047E00039462A46484601F01FFB074600287FF459
:1047F00008AFEAE7824A4FF0010AD31A0AFA03F334
:104800000C93E0E60022CDF86C800B9287E5012244
:104810000E9208F102021B9298F80240D8E50B466E
:10482000CDE914239AE7DDE90612002940F0AF80B4
:10483000C2F313031192002B40F0AF80714B0022A2
:1048400020462946FCF7EAFE002840F0AE826A4B7B
:10485000204629460022FCF76FFC01F10043054683
:104860000C4618901993DDE91823CDE90C2301E7D4
:10487000652C4FF0010E3FF49CAD19E5A2F1547385
:104880000793DDE90623DDE90C01CDE906011046B9
:104890001946CDE90C2301F005FC02460B46DDE983
:1048A0000601FCF749FCDDE90C23FCF78FFA564AB8
:1048B0000E409642CDE9060176D9049A534B9A42AE
:1048C00002D10B9B013380D0504A4FF0FF33CDE92A
:1048D000063209E700220E929BE7652C00F0FB8070
:1048E000452C00F0F8804FF0010EAEE52846214639
:1048F000FCF7DCFEFCF7F2FB0B460246214628469D
:10490000FCF762FA109C069DC6F3130644EA050CF8
:104910005CEA060304460D4600F0C28032A3D3E9E8
:104920000023FCF77BFE48B931A3D3E900232046DE
:104930002946FCF791FE00283FF4D6AEDDE90634A7
:104940001C9804945E46BA469B460146484601F0D0
:104950002DF85146484601F029F84146484601F0F5
:1049600025F81399484601F021F83146484601F0F0
:104970001DF892E501230A937A1C1B927B78002B89
:104980003FF49DAC174629E400230A93F4E7DDE9E0
:104990000612012900F0748111921D4B194C00225E
:1049A000CDE90C23002565E601F15476079694E6DF
:1049B00021462846FCF75AFE012838BF0120FCF7A3
:1049C00041FB109B024605460C46002B40F06981D6
:1049D00001F1004316901793DDE91623CDE90C236E
:1049E0005FE600BFAFF300809535A094FFFFDF3F87
:1049F00035E5AF350000E03F0000E03F0000F07F0C
:104A0000E2FBFFFF0000F03FFFFF9F7CFFFFEF7F17
:104A10000000F0BFB3F59A7F00F3D380102B4FEA6C
:104A20002314A54B40F3C682DDE90601984609939D
:104A300000239A4614F0010F0AF1010A4FEA6404B8
:104A400004D0D8E90023FCF777FB0123012C08F1FF
:104A50000808EFD10BB1CDE90601099B03EBCA01B0
:104A6000079BA3F154730793DDE90623D1E9000105
:104A7000FCF762FB914BCDE906010B400A469049D9
:104A80008B4200F29E80A1F580118B4240F21C8285
:104A90008C494FF0FF33CDE906310023099330E50F
:104AA00083A3D3E90023FCF7B9FD00283FF41CAE33
:104AB00044E71633FFF60BAD0B9BABEB0302824BC7
:104AC00003EBC203DDE90601D3E90023FCF75EFC3A
:104AD00083460491E1E40022049293464FF0010ED4
:104AE000FFF7EABB6E2C3FF4C2ACFFF7E8BB3FF424
:104AF00006AD644214F00F020AD0734B03EBC203FD
:104B0000DDE90601D3E90023FCF740FCCDE906010D
:104B100024113FF4F4AC1F2C35DC14F01003DDE954
:104B2000060118BF6A23DFF8A48109930023E20776
:104B300004D5D8E90023FCF7FFFA0123641008F13B
:104B40000808F4D10BB1CDE90601099B93B1DDE969
:104B50000601C1F30A52C2F16B03002B0ADD1F2BC1
:104B600040F350820020342B069040F356824FF0E1
:104B70005C730793DDE9060100220023FCF744FD86
:104B800000283FF4BEAC22234FF0000BC9F80030E0
:104B9000CDF810B081E41E9B06931D9B03F23342B7
:104BA0001F9B23F4801343EA02530793200742BF5D
:104BB000079B43F000430793DDE906349B460494CA
:104BC0006BE43E4A04922223C9F800304FF0000BF8
:104BD00063E40A9B01931CAB029400933C4A1DAB17
:104BE0001BA9484600F0CAFA10F0070504463FF436
:104BF00050AC062D40F09380089B0137002B3FF40A
:104C000063AB4FF0000B1F60CDF810B0FFF760BB37
:104C10006A1C012B1B9C9B44104615D02B4403F1AE
:104C2000FF3C03E0460094450DD001322B46082B93
:104C3000154606EB8600F5D9102ADCBF0AEB8A0A76
:104C40004FEA4A0AEFE7981C082D5BDC0546FFF7A0
:104C500015BB04995A46384601F0A2FB002800F023
:104C6000888000231D4604939A461E46FFF751BBD9
:104C700044F61F629042A8BF10460B90FFF7DBBBC3
:104C8000DDE906341194002C7FF487AEBA465E4607
:104C900022234FF0000B1C98C9F80030CDF810B05B
:104CA00053E60B46CDE9162396E600BFAFF300802E
:104CB0009535A094FFFFCF3F389100080000F07FAA
:104CC0000000A07CFFFFEF7F60910008D88E0008F5
:104CD000AC8E0008AD491BA800F02EFD00283FF463
:104CE000EEAA1B9BAA49013B1BA81B9300F024FDC5
:104CF00010B91B9B01331B93A64B04934FF0000B81
:104D0000FFF7CBBB1028DCBF0AEB8A0A01EB4A0A8B
:104D100005460023FFF7B7BA0023FFF7A1BA1C9A94
:104D20003AB135211EA801F0D7FA1C99484600F087
:104D30003DFE013D042D3FF639AF01A353F825F0A8
:104D4000974B0008694D0008634D0008554D000859
:104D5000974B00084FF0FF336FF00045CDE9063563
:104D600024E78C4B079321E71E9B06931F9B079319
:104D70001CE71B9A13465A441B9213F80B40064635
:104D80008246FFF762BA0E98834901EBC001DDE964
:104D90000623D1E90001FCF7CFF983460491FFF720
:104DA0007CBB04958346FFF771BA7C4B7C4C109D0D
:104DB0000022CDE9182356E5774CC5F10F0504EB29
:104DC000C501DDE90623D1E90001FCF7B5F90E9B29
:104DD0005D1B04EBC504D4E90023FCF7ADF9834661
:104DE0000491FFF75ABB109B5E46D446BA46DDE9F4
:104DF0000BB7002B6FD0DDE906456A4BC5F31301F5
:104E000099422A463CD0002F00F0A380DDE906231A
:104E10001F421C4621D0109B04995846002B00F0DD
:104E2000CD8001F03FF9099D02460B467DB1C4F3E8
:104E30000A54C4F16B04002C09DD240504F17F53EE
:104E4000002203F54013FCF777F902460B4604995C
:104E50005846FBF7BBFF83460491099B73B1049945
:104E6000514B58460022FCF767F903460B4308BF35
:104E700022238346049108BFC9F800301C9864E5DA
:104E8000099B0699002B00F0C580424B2B40B3F1E3
:104E9000D46F00F2BF801B0DC3F16B034FF0FF30E6
:104EA00000FA03F39942AED1404B9A4200F0D88009
:104EB000384B134003F58013079300230693DDE975
:104EC00006349B460494C8E702F154730793002309
:104ED0000993FFF716BBDDE90612C2F313030B4378
:104EE000144690D1099B002B40F0AF80294B234002
:104EF000A3F580136FEA13536FEA035307934FF040
:104F0000FF33DBE7DDE90612109B0B4358465E4694
:104F1000BA46DDF82CB0A0D1C2F313031446002B1F
:104F20009BD122F000431B0D1B05B3F1D66F94D922
:104F3000436913B90369012B8FDD314601224846CD
:104F400000F072FF4146064600F0E6FF002884DDCF
:104F5000C8E7DDE906341CEA030F3FF47EAF5AE7E9
:104F600013491BA81EAA00F001FC05287FF48BAA98
:104F70001F9B43F0FF4343F4E00307931E9B0693FC
:104F8000DDE906349B460494FFF787BA9C8E00083F
:104F9000A08E00080000F07F609100080000E0BFD4
:104FA0000000E03FFFFF0F0000005039FFFFEF7FE0
:104FB000C08E000809934FF0000A4EE501F072F828
:104FC000099D02460B4695B3C4F30A54C4F16B0421
:104FD000002C09DD240504F17F53109A03F54013DA
:104FE000FCF7AAF802460B4604995846FBF7ECFE7C
:104FF0000022002383460491FCF706FB00283FF4BF
:105000002EAF45E64FF0FF3202FA03F3069A1A403C
:105010000692AFE54FF0FF3344E74FF0FF33C2F1A4
:105020004B0203FA02F202EA01030793A2E5049994
:105030005846FBF7C9FE0022002383460491FCF783
:10504000E3FA00283FF41AAF22E6084B2340B3F1FD
:10505000D66F3FF74DAFB3F15C7F3FF700AF17E678
:1050600001317FF425AFFFF7B2BB00BF0000F07F36
:1050700010B4044C044B84460A46206810BC6146B8
:10508000FFF75EB80C00002040040020024B13B173
:10509000024800F005B8704700000000AD5000085D
:1050A000002301461A46184601F0C8B938B5084B26
:1050B000084D5B1B9C1007D0043B1D44013C55F878
:1050C00004399847002CF9D1BDE8384003F0BCBE44
:1050D000DC930008D89300082DE9F0410469B4EB93
:1050E000611F2FDD00F1140E4E1111F01F0C0EEB9D
:1050F00084050EEB86032BD05EF8262004339D42F8
:1051000022FA0CF1CCF1200818D977461A6802FA75
:1051100008F20A4347F8042B53F8041B9D4221FA76
:105120000CF1F3D8A41BA300053B9B0801330EEB45
:1051300083044EF82310C9B1043417E0416174466A
:105140000029F9D10023036100234361BDE8F08108
:105150009D4288BF00F11002F4D953F8041B42F8B5
:10516000041F9D42F9D8A41B0EEB8404A4EB0E038C
:105170009B1074450361E7D0BDE8F0812DE9F04F45
:10518000A84C8BB02468059020468946029207936C
:105190000394FBF755FD21460144D9F8003011F87E
:1051A00001BC99783029024640F0DA816FF00100A5
:1051B000C01A033300EB030A1C4613F8011B302905
:1051C000F8D0DFF8648218F80130002B00F0F0808E
:1051D0002378002718F803303D4626462BB116F8F1
:1051E000013F18F80330002BF9D1039901923046A2
:1051F00001F0D6F8019A0090002800F09180002D6F
:1052000040F091803378009503F0DF03502B354652
:1052100000F09380C9F80060002F40F0AB802B1B9A
:10522000013B072B394604DD5B10072B01F101011F
:10523000FADC0598049200F093FB049A0190002890
:1052400000F06782019BAC4203F11406069680F0E1
:10525000DC810027C2F10103B946049310E0202F3E
:1052600000F091803946043715F8013C18F80330F6
:10527000554603F00F038B40A54249EA030916D9AE
:1052800015F8013C5B4505F1FF3AE8D1049B534416
:10529000A342E4D3184603990992089301F080F8D9
:1052A000DDE908320028DAD11D46A542E8D846F8E3
:1052B000049B069BF61A019BB6101E61484600F03F
:1052C00029FC029B76011C68301AA04200F3AE80D4
:1052D000C0F226810027029B009A9B689342C0F28D
:1052E00089810299009A4B6893427EDD9D1AAC42F7
:1052F00000F3BC80CA68022A00F0BC81032A00F0D7
:10530000B481012A00F098810598019900F04EFBC4
:105310005025149A0023284613600BB0BDE8F08F87
:10532000002D00F00B81AD1BAB000093337803F030
:10533000DF03502B35467FF46DAF6B782B2B00F0DD
:10534000ED802D2B6AD06E1C002018F803104B1E28
:10535000182B61D8737818F803301039013623BB45
:1053600000B14942009BC9F800600B440093002F34
:105370003FF455AFBAF1000F14BF002506252846AB
:105380000BB0BDE8F08F002146F8049B0427894646
:105390006AE701EB810103EB4103A3F1100116F869
:1053A000013F18F80330002BDAD0192BF1DDD7E7D5
:1053B00003990092204600F0F3FF009A002873D171
:1053C000A15C18F80130A518002B6FD030292C46AD
:1053D00005D114F8013F302BFBD018F80330B3FA95
:1053E00083F77F094FF0010AF7E6012557B1029BC9
:1053F000DB68022B62D0032B64D0012B00F0858088
:1054000045F01005149B019A1A60079B009A1A60D8
:1054100028460BB0BDE8F08F2E46FBE60120AB78A6
:10542000AE1C92E7A09000089C8F0008019D061B0F
:105430003146284600F07EFF074678B1721E5311B0
:105440000699012751F8231002F01F0307FA03F30E
:105450000B4203D0BA4200F3E2800227009B01987E
:10546000334431460093FFF737FE34E76E1E002FBA
:1054700040F0C980002E40F0CC807311069A01984C
:1054800052F8232006F01F06012303FA06F61642FF
:10549000294618BF47F00207FFF71EFE029B5B6814
:1054A0000093641B0225A1E72178254601F0DF0166
:1054B000502900F0BD80C9F800505BE7159BC3F18F
:1054C00001031593159B002B9AD0019BDDF81890D2
:1054D0001E6900214B464FEA860809EB860003E06F
:1054E000984243F8041C3FD91F4653F8042BB2F1ED
:1054F000FF3FF5D00132022D3A6000F0C08014F079
:105500001F0440F0E08021257CE7BA077FF578AFE3
:10551000069B1B681F43FB07D7D471E700207EE77B
:10552000DDE90031221A9B1A0598009300F07CFCFB
:1055300003461433019006930027CCE6B35C18F8B9
:105540000310B018064600293FF45EAE16F8013F7E
:1055500018F803100029F9D1801B8100009153E64F
:105560009C1C4FF0000A2CE6019B9B689E4280F237
:105570008D803346019901EB830201330B61022DCB
:105580004FF0010151617AD09E42B8DA002B40F30E
:10559000A780019A09EB8303516902F11800834245
:1055A0004FEA510140F2AF804C46026841EAC271B5
:1055B00044F8041B50F8041B83424FEA5101F4D80D
:1055C000019A9B1A193B9B08013349F8231009EBF8
:1055D0008303002940F09B800199A3EB09029210FC
:1055E0004B450A617FD0029B009A9B68013293422F
:1055F000009288DA0199059800F0D8F9149A0023EE
:105600001360A325BBE6012737E7069E4FF000098C
:105610004DE60198314600F08DFE07462DE7B11E9C
:10562000284600F087FE00283FF417AF032715E750
:1056300000230093012780E6AC427FF465AE012C85
:1056400008D00198611E00F075FE00283FF45CAEA2
:10565000029B5B6807990B60019B069901221A6106
:105660000A60149A6225136089E6159A002A3FF4AD
:105670004BAEEFE7159A002A7FF446AEEAE7029BAD
:105680001B68013BA34232D02225BBE6019B059853
:105690005968013100F064F9074600283FD0DDF871
:1056A0000490D9F81030494602339A000C310C307E
:1056B000FBF71CFA4946059800F078F907F1140940
:1056C0003B69019756E7C844C4F1200458F8040C1C
:1056D00000F020FAA042BFF616AF019B1B6955E708
:1056E000019A00231361019A002353617BE7631140
:1056F00004F01F0459F823200123A34013420CBFD8
:10570000222521257EE6C9F800104B4669B10433F5
:1057100062E7074B0748019ADE2100F0D5FE044BF3
:1057200004483A46842100F0CFFE019B1961DAE774
:10573000008F0008148F000810B4046809E014F802
:10574000013FA3F1410CBCF1190F98BF20339342E4
:1057500008D111F8012B002AF1D101340460012095
:1057600010BC7047002010BC704700BF2DE9F04FFF
:10577000096885B04B1111F01F01029002EB830301
:10578000039140F08E801D1F0193029B01991C68BC
:10579000002341F8043C61780134002900F097802F
:1057A000DFF87091A846AC469A461E460EE02029C6
:1057B00000F28B80B24506DAC44501D2072B5BDDCF
:1057C000624551D3082314F8011FA1B119F8010053
:1057D0000028ECD00133082B06F101063ADCDCF896
:1057E0000010090100F00F000843CCF8000014F885
:1057F000011F0029EAD1002E69D0E04501D9072B0D
:1058000073DD624551D2111F634653F8040B41F812
:10581000040F9D42F9D2A5EB0C0323F00303691C8E
:1058200004330CF1010C614538BF042313440021FB
:1058300043F8041B9D42FBD2019B53F8043C2BB957
:10584000AA4248D055F8043D002BF9D0052005B0F8
:10585000BDE8F08F6245B6D200234CF8043C1946EF
:10586000ACF1040C0123BDE70023ACF104084CF8B3
:10587000043CB246C446A6E7C3F108018900DCF83F
:105880000030C1F1200E60468B46416801FA0EF7E8
:105890003B43036021FA0BF340F8043F4045F4D347
:1058A0008EE7191D01911D466FE7039B002BC3D0A6
:1058B000039B0198C3F120014FF0FF33CB4050F818
:1058C000041C0B4040F8043CB9E7292909D0042006
:1058D00005B0BDE8F08F012305202B6005B0BDE8C1
:1058E000F08F029901340C6085E7C3F108039B0037
:1058F000DCF80010C3F120076446666806FA07F07A
:105900000143216026FA03F144F8041FA045F4D8AE
:1059100077E700BF9C8F0008014B93F82801704780
:1059200040040020704700BF704700BF704700BFB1
:10593000704700BF82B049B15AB16BB113780B60A8
:105940001278101E18BF012002B0704701A9002A6A
:10595000F3D1104602B070476FF00100F4E700BFCA
:10596000C36C70B505460C464BB153F8240080B1AA
:10597000026843F824200023C0E9033370BD2122CC
:10598000042100F0C1FD0346E8640028EDD10020A9
:1059900070BD012101FA04F6721D9200284600F044
:1059A000B3FD0028F3D0C0E90146E4E731B1C36C90
:1059B0004A6853F82200086043F82210704700BF7D
:1059C0002DE9F0410D6907460E461C4601F1140E03
:1059D0000020DEF800108BB202FB03434FEA134CA9
:1059E000090C02FB01CC01309BB203EB0C43854256
:1059F0004EF8043B4FEA1C44EBDC3CB1B368AB42CD
:105A000007DD06EB850301355C6135613046BDE895
:105A1000F081716838460131FFF7A2FF8046A8B1D6
:105A20003269023206F10C0192000C30FBF75EF88D
:105A3000FB6C726853F82210316043F822604646CE
:105A400006EB850301355C613561DFE7024B0348F6
:105A50004246B52100F038FD008F0008B8900008DC
:105A60002DE9F8430C4628491E46174603F1080263
:105A700081FB0231092E4FEAE2730546C3EB610355
:105A800039DD4FF0010C00214FEA4C0C634501F168
:105A90000101F9DC2846FFF763FF014668B3089B64
:105AA0004361092F4FF00103036112DC0A34092717
:105AB000BE420BDDF61B264414F8013B0A22303BA4
:105AC0002846FFF77DFFA6420146F5D10846BDE80E
:105AD000F88304F10909C8463C4418F8013B0A223E
:105AE000303B2846FFF76CFFA0450146F5D1A7F1F2
:105AF00008044C44DCE70021CCE70A46034B044889
